:020000040800F2
:10000000E00D00206D1D00087D0800087F08000835
:1000100083080008870800088B080008000000001B
:100020000000000000000000000000008F08000831
:1000300091080008000000009308000895080008D7
:10004000871D0008871D0008871D0008871D000800
:10005000871D0008871D0008D50C0008871D0008B3
:10006000010D0008871D0008871D0008871D000876
:10007000871D0008871D0008871D0008871D0008D0
:10008000871D0008871D0008871D0008871D0008C0
:10009000871D0008871D0008871D0008871D0008B0
:1000A000871D0008871D0008871D0008871D0008A0
:1000B00011140008871D0008871D0008871D00080F
:1000C000871D0008871D0008871D0008871D000880
:1000D000871D0008E11C0008871D0008F10F0008BB
:1000E000871D0008871D0008871D0008871D000860
:1000F000871D0008871D0008871D0008871D000850
:10010000871D0008871D0008F1110008871D0008E1
:10011000871D0008871D0008871D00087911000849
:10012000871D0008871D0008871D0008871D00081F
:10013000871D0008871D0008871D0008871D00080F
:10014000871D0008871D0008871D0008871D0008FF
:10015000871D0008871D0008871D000875460008D8
:10016000871D0008871D0008871D0008871D0008DF
:10017000871D0008871D0008871D0008871D0008CF
:10018000871D0008871D000800F002F800F092F8B3
:100190000AA090E8000C82448344AAF10107DA45E2
:1001A00001D100F087F8AFF2090EBAE80F0013F0A2
:1001B000010F18BFFB1A43F001031847E485000044
:1001C00004860000103A24BF78C878C1FAD85207D4
:1001D00024BF30C830C144BF04680C6070470000C1
:1001E0000023002400250026103A28BF78C1FBD840
:1001F000520728BF30C148BF0B6070476E2904F01A
:100200005585702904F0BF86662907F03284652978
:1002100007F02F84672907F02C846129AFF3008051
:1002200003681B0A28BF41F08001692904F0668336
:10023000642904F06383752904F060836F2904F056
:100240004C86782904F08B86E92904F0E785E429B7
:1002500004F0E485F52904F0E185EF2904F04986EE
:10026000F82904F08A860368DB0928BF41F0800181
:10027000632904F05685732904F05B85E32905F0B2
:100280001181F32905F01681002070471FB507F092
:10029000E6FB05F087F904000020002106F0BCFD14
:1002A000401C60600020002106F0A0FDE0601FBD42
:1002B00010B510BD05F048F91146FFF7E7FF00F053
:1002C00065F805F025FA03B4FFF7F2FF03BC01F06F
:1002D000A7FC000010B50021F64803F096F90021B4
:1002E000F44803F090F9F448006820F00100F24966
:1002F00008600846006820F0040008600021ED480E
:1003000003F083F94FF4C871EA4803F07CF941F235
:10031000504001F065FCE8480068E74800680021AB
:10032000E44803F072F90021E24803F06CF910BDD3
:1003300010B50021DF4803F068F90021DD4803F023
:1003400062F9DD48006820F00100DB4908600846DA
:10035000006820F0040008604FF4C871D54803F02D
:1003600054F90021D34803F04EF941F2504001F016
:1003700037FCD1480068D04800680021CD4803F020
:1003800044F90021CB4803F03EF910BD2DED028B5E
:1003900090B0002600270024A0460020C74908701E
:1003A000C7490870C7490870C7490870C74908702D
:1003B0004FF4A06001F0FAFCA82001F0AFFB4FF46D
:1003C000E13001F03BFC4FF4E13000F041FE4FF42E
:1003D000E13004F07FF900F067FB01F017F900232A
:1003E000BBA21946184601F0ADF90023B9A219467F
:1003F000102001F0A7F90120B7490860B749C1F8FA
:10040000B40203F09CFE0023B54819460268182088
:1004100001F098F90020B049086004F04BF8002082
:10042000AE49C1F8B402AFA004F0F6F900F0CCFB7D
:1004300000F036FC00F0C2FD00F0E4FF02E0B0A0E6
:1004400004F0EAF900F097FD0028F8D1532140F2BA
:10045000E73000F00EFF01F0BEF8E4E1012003F008
:1004600044FD002301221946184601F034FA002306
:1004700002221946102001F02EFA00230322194609
:10048000202001F028FA0023A4A21946542001F0EC
:1004900059F90023A2A21946782001F053F900234C
:1004A00004220221184601F016FA00230522022137
:1004B000102001F010FA002306220421184601F052
:1004C0000AFA002307220421102001F004FA002375
:1004D00008220621184601F0FEF900230922062110
:1004E000102001F0F8F900230A220621202001F053
:1004F000F2F900230B220621302001F0ECF98948A3
:10050000007810B10020874908700A2095FBF0F1AF
:1005100000FB115038B984480068C0EB001080001F
:100520000D21B0FBF1F4142095FBF0F100FB11500C
:1005300008B1002D7ED16848006808B9012000E0AC
:1005400000206549086006A907A800F0E8FC9DF8AE
:1005500018209DF81C1075A004F05EF900F038FB1F
:10056000B0EE408ABCEEC80A10EE100A86B2B6F5AC
:10057000FA7F00DA0027B6F57A7F00DD0127B6F5AD
:10058000FA6F00DD0227314672A004F045F9642CB1
:1005900001D24FF00008B4F57A7F03D2642C01D960
:1005A0004FF0010841F28830844204D2B4F57A7FDA
:1005B00001D94FF0020821466BA004F02DF900206C
:1005C000594908609DF81C206DA105A804F030F978
:1005D0009DF818206AA104A804F02AF9002304AAAF
:1005E0001946682001F0AEF8002305AA19464420F8
:1005F00001F0A8F808F10D0200230221642001F0A7
:100600006AF931480078C0F1110200230421642006
:1006100001F061F907F10D0200230621642001F0C9
:100620005AF92A48007800282FD0002240F225519C
:10063000544800E02CE002F078FC202108A804F0E7
:1006400094FA2048007800210091019132231A2267
:10065000CDE902104CA108A804F0EAF80A224EA144
:100660004EA003F090FC0A2001F0BAFA0A224AA137
:1006700008A803F0BAFC08A94CA004F0CDF80122A8
:1006800040F225513F4802F050FC00200E4908700E
:100690000A48007860B1094801784AA004F0BCF823
:1006A000FFF746FE002005490870084601789DE0E6
:1006B0009FE0000000040040003C014003000020D7
:1006C000040000200000002001000020580000204D
:1006D00049503A003A000000B08240420080404257
:1006E000080000205B64656275675D3A696E697435
:1006F0002073656E736F722E2E2E2E0D0A00000071
:100700005B64656275675D3A696E69742073656ED6
:10071000736F72206F6B0D0A000000004300000031
:100720002500000002000020240000200D0A5B7359
:10073000656E736F725D74656D70657261747572EC
:10074000653A2564202068756D69646974793A2575
:10075000640D0A005B73656E736F725D70706D3A45
:100760002564200D0A0000005B73656E736F725D77
:1007700077696E6473706565643A25640D0A0000DC
:100780002564000000100140253264253264256490
:1007900025642564256400004F4B000041542B4321
:1007A000495053454E443D302C3800005B6465622F
:1007B00075675D73656E64646174613A25730D0AD3
:1007C000000000006F70656E57696E646F77312DA1
:1007D0002D2D6F70656E5F77696E646F775F666CE5
:1007E0006167A3BA25640D0A000000000EA004F0A2
:1007F00013F81748007870B11548017815A004F077
:100800000BF8FFF767FD00201149087008460178D2
:1008100010A004F001F8642001F0E2F9642D00DD7D
:100820000025681C85B219E66F70656E57696E64A5
:100830006F77322D2D2D6F70656E5F77696E646FE7
:10084000775F666C6167A3BA25640D0A000000003B
:1008500004000020636C6F736557696E646F772DB9
:100860002D2D636C6F73655F77696E646F775F665C
:100870006C6167A3BA25640D0A000000704700BFD1
:10088000FEE700BFFEE700BFFEE700BFFEE77047E0
:1008900070477047704700000CB500200190009031
:1008A0007648006840F480307449086000BF73489F
:1008B000006800F4003000900198401C01900098FE
:1008C00018B90198B0F5A04FF1D16C48006800F458
:1008D000003010B10120009001E00020009000984D
:1008E000012846D165484030006840F08050634997
:1008F000403108606248006840F440406049086048
:100900005E48083000685D490831086008460068A4
:1009100040F4004008600846006840F4A0500860B9
:100920005848091F0860081F006840F08070091FC0
:10093000086000BF5148006800F000700028F9D03E
:1009400040F20570504908604C480830006820F0BB
:1009500003004A49083108600846006840F0020078
:10096000086000BF45480830006800F00C00082807
:10097000F8D10CBD10B54548006840F470004349FB
:1009800008603E48006840F001003C4908600020D3
:100990003A4908310860394800683D4908403749FC
:1009A00008603C48091D0860081F006820F480208A
:1009B000091F0860002031490C310860FFF76CFF07
:1009C0004FF0006031498039086010BD70B50020DB
:1009D0000022022300240221284D08352D6805F04D
:1009E0000C0020B1042806D0082834D107E02A4D95
:1009F0002A4E356033E02A4D284E35602FE01F4DDA
:100A00002D1D2D68C5F380541C4D2D1D2D6805F03E
:100A10003F0154B1224DB5FBF1F5184E361D366835
:100A2000C6F3881605FB06F209E01B4DB5FBF1F590
:100A3000124E361D3668C6F3881605FB06F20F4DBA
:100A40002D1D2D68C5F301456D1C6B00B2FBF3F540
:100A5000124E356003E0104D104E356000BF00BFF0
:100A6000064D08352D68C5F303150E4E705D0B4D10
:100A70002D68C540094E356070BD00000038024049
:100A80000070004008544007003C024088ED00E040
:100A9000FFFFF6FE103000240024F4000C000020BC
:100AA00000127A00100000201CB50121022001F084
:100AB00043FF4FF44050009001208DF804000020C7
:100AC0008DF8060003208DF8050001208DF8070041
:100AD0006946044801F092FC4FF44051014801F08E
:100AE00009FD1CBD0004024000B58DB0012108467F
:100AF00001F022FF0121080201F078FF20200B9075
:100B000003208DF8300000208DF833000BA92C480D
:100B100001F074FC0121080201F0BDFF00214FF437
:100B2000807001F0B8FF002007900A9009904FF400
:100B30008030089007A801F0E3F9002001908DF8BB
:100B400008008DF809000390059001208DF8180029
:100B500001A91C4801F0A5F901211A4801F0E7F9A3
:100B60000DB000BD10B504460723012221461548EB
:100B700001F01DFA134801F076FA00BF0221114876
:100B800001F092FB0028F9D00E4801F0A8FA10BD40
:100B90002DE9F04107460C460025002608E03846BE
:100BA000FFF7E0FF0544052001F01AF8701CC6B2FB
:100BB000A642F4DBB5FBF4F080B2BDE8F0810000A2
:100BC000000002400020014010B5FFF78DFF10BD6E
:100BD00010B52DED0A8B14210520FFF7D9FF08EE83
:100BE000100AB8EE480ADFED260A20EE200ADFEDF3
:100BF000250A80EE201AF0EE418A9FED210A30EEA0
:100C0000680AC0EE280A10EE904A204606F0B6FEAA
:100C100041EC1B0B9FED1C0B53EC102B06F0B8FBAB
:100C200041EC1A0B06F01AF909EE100AB3EE0E0A9F
:100C3000C9EE000A10EE904A204606F09FFE41ECF5
:100C40001C0B9FED131BB0EE4C0AF0EE6C0A05F086
:100C50008BF9B0EE40BAF0EE60BA9FED0F0B53EC9B
:100C6000102B51EC1B0B06F093FB41EC1A0B06F01A
:100C7000F5F809EE900AB0EE690ABDEC0A8B10BDDA
:100C80003333534000008045CDCCCCCCCCCC12408B
:100C9000000000408D9700C000000040332F8340CB
:100CA0001CB50121084601F047FE012000900020FC
:100CB0008DF8040003208DF8050002208DF8070050
:100CC0006946034801F09AFB00F03EF81CBD0000A5
:100CD0000000024010B50A2000F082FF40A003F09F
:100CE0009BFD0120464908704648006808B901206C
:100CF00000E0002043490860012003F0B6F810BD71
:100D000010B50A2000F06CFF3F480078012812DD82
:100D100001203E49087000203B4908703948001FF7
:100D2000006808B9012000E000203649091F08606A
:100D300037A003F071FD34480078401C3249087038
:100D4000042003F092F810BD0EB50121880301F0D4
:100D50004DFE0021084602F07EF90120009000209F
:100D60008DF8040008208DF8050001208DF806009C
:100D7000684603F009F806208DF8080002208DF877
:100D800009008DF80A0001208DF80B0002A801F07F
:100D900012F80EBD0EB50121880301F027FE0221D5
:100DA000042002F058F90420009000208DF804007F
:100DB0000C208DF8050001208DF80600684602F031
:100DC000E3FF08208DF8080002208DF809008DF857
:100DD0000A0001208DF80B0002A800F0ECFF0EBD08
:100DE0000D0ABAECCDE2C8C8CACDB5E7BFAAB9D8DA
:100DF000BCE0B2E2B5BDD3D0C8CB0D0A0000000004
:100E000002000020B48240422000002001000020A7
:100E10000D0ABCE0B2E2B5BDD3D0D3EAB5CE0D0A1F
:100E20000000000010B56248006820F0C000604972
:100E300008600846006840F04000086000205D49F6
:100E40000860142000F0CCFE01205B49C1F88C0240
:100E50001E2000F07DFE10BD10B50024544800682F
:100E600020F0C0005249086008460068086004E0AD
:100E7000601CC4B2012000F06BFE4E488038006850
:100E800008B1642CF4DB642C01DB012010BD0024CC
:100E900004E0601CC4B2012000F05AFE45488038CE
:100EA000006808B9642CF4DB642C01DB0120EDE759
:100EB0000020EBE710B5002404E0601CC4B2012060
:100EC00000F046FE3B488038006808B1642CF4DB33
:100ED000002404E0601CC4B2012000F039FE354853
:100EE0008038006808B9642CF4DB282000F030FE5C
:100EF00030488038006808B1012010BD0020FCE7B0
:100F000070B50024002506E06006040EFFF7D2FF4E
:100F10000443681CC5B2082DF6DB204670BD7CB5C5
:100F200005460E46FFF77EFFFFF796FFF8B900244F
:100F300005E0FFF7E5FF0DF80400601CC4B2052CC6
:100F4000F7DB9DF800009DF8011008449DF80210A1
:100F500008449DF8031008449DF80410884208D105
:100F60009DF8000030709DF80200287001E001201B
:100F70007CBD0020FCE71CB50121042001F0DCFC55
:100F80000820009001208DF8040000208DF8060054
:100F900002208DF8050001208DF8070069460448FD
:100FA00001F02CFAFFF73EFFFFF756FF1CBD0000D3
:100FB000000802408C024142000041421CB5012160
:100FC000102001F0B9FC0420009000208DF80400EE
:100FD00003208DF8050001208DF8070069460348BD
:100FE00001F00CFAFFF7D6FE1CBD00000010024015
:100FF00010B540F225515A4801F0D2FF00B35848CD
:1010000001F00CFFC4B25748008800F40040B8B9A2
:1010100054480088B0F5C87F13DA0021524802F026
:1010200049F95048008818B901214F4802F082F967
:101030004C4801880088401C4A4A10804B48445460
:1010400005E04848008840F400404649088010BD4B
:1010500010B588B004460121022001F06DFC012189
:10106000880401F0B2FC3E4801F0BAFD07220B21D2
:101070003F4801F04EFA07220A213D4801F049FAA3
:101080004FF44060059002208DF818008DF819008B
:1010900000208DF81A0001208DF81B0005A93448A6
:1010A00001F0ACF901940020ADF80800ADF80A0099
:1010B000ADF80C00ADF810000C20ADF80E0001A941
:1010C000274801F0F4FD0121254801F078FE0122B6
:1010D00040F22551224801F028FF27208DF81C00FE
:1010E00002208DF81D0003208DF81E0001208DF8D0
:1010F0001F0007A800F05FFE42F2CF0140F2E73088
:1011000000F04FF80020174908800021164802F02F
:1011100011F908B010BD0FB438B505A800901548F6
:10112000009A049903F066FB00200090114803F038
:10113000FDFC85B200240DE000BF4021084801F00D
:1011400019FF0028F9D00B48015D054801F062FE47
:10115000601C84B2AC42EFDB38BC5DF814FB0000CD
:10116000004800402200002000140040F801002048
:10117000000402406800002010B50121694802F017
:1011800008FD68B16848008840F40040664908805E
:101190000121644802F00EFD0021624802F0CAF805
:1011A00010BD7FB505460C460121202001F00DFC45
:1011B0000195ADF800400020ADF80800ADF8020040
:1011C0006946584802F02DF801221146554802F0B0
:1011D000C9FC37208DF80C0000208DF80D0001208F
:1011E0008DF80E008DF80F0003A800F0E4FD7FBD20
:1011F00010B501214D4802F0CCFC68B14C48008884
:1012000040F400404A4908800121484802F0D2FCDD
:101210000021464802F08EF810BD7FB505460C4609
:101220000121082001F0D1FB0295ADF80440002017
:10123000ADF80600ADF80C0001A93C4801F0F1FF43
:1012400001221146394802F08DFC0121374802F095
:1012500071F832208DF8000001208DF80100032084
:101260008DF8020001208DF80300684600F0A3FD10
:101270007FBD30B58BB004460D460121022001F040
:10128000A4FB0121022001F057FB02220121294881
:1012900001F03FF902220021264801F03AF903202B
:1012A000099002208DF8280003208DF829000020E5
:1012B0008DF82A0001208DF82B0009A91D4801F0A6
:1012C0009DF8A8B2ADF818000020ADF81A000794F8
:1012D000ADF8200006A9184801F0A3FF6020ADF882
:1012E00004000120ADF806000220ADF8100001A9AD
:1012F000114802F017F901A90F4802F0ADF80821D2
:101300000D4802F0CFF908210B4802F0C2F9012183
:10131000094801F0F1FF0121074802F00BF80BB07A
:1013200030BD00000014004022000020000C0040EE
:101330006000002000040240000400401CB50121B0
:10134000084601F0F9FA0420009002208DF804000C
:1013500003208DF8050002208DF8070000208DF88D
:1013600006006946334801F049F80122022131485C
:1013700001F0CFF81CBD08B51C208DF8000000203E
:101380008DF8010003208DF8020001208DF8030084
:10139000684600F010FD08BD00B587B00121084681
:1013A00001F013FB4FF6FF7005905320ADF81000CD
:1013B0000020ADF81800ADF8120004A94FF08040ED
:1013C00001F02FFF0820ADF804000020ADF8060062
:1013D0000120ADF808000020ADF80A00ADF80C00BF
:1013E00001A94FF0804002F0F3FAFFF7C4FF012299
:1013F0000821C80602F0B6FB0121880701F09AFF18
:1014000007B000BD10B5FFF799FFFFF7C5FF10BD8E
:1014100010B50821C80602F0BCFB012808D108213C
:10142000800702F0C7FB04480068401C02490860BE
:1014300010BD000000000240240000201CB5012166
:10144000022001F079FA4FF44070009001208DF8ED
:10145000040003208DF8050001208DF8070000200E
:101460008DF806006946F74800F0C8FF4FF4407158
:10147000F44801F03FF81CBD10B50120F2490860A6
:1014800000F066FB0120F149C1F8A00200F060FB0A
:101490000020ED490860012000F05AFB0020EB49D4
:1014A000C1F8A00210BD10B50020E7490860012076
:1014B00000F04EFB0020E549C1F8A002012000F039
:1014C00047FB0120E049086000F042FB0120DF49B2
:1014D000C1F8A00210BD70B5044600251DE004F05F
:1014E000800018B10120D849086002E00020D649E8
:1014F0000860012000F02CFB0120D349091F08607F
:1015000000F026FB0020D149C1F8A002012000F024
:101510001FFB6006040E681CC5B2082DDFDB01202E
:10152000C949091F086000F013FB0020C749C1F832
:10153000A00270BD10B50446FFF79EFF7820FFF7AC
:10154000CAFF4020FFF7C7FF2046FFF7C4FFFFF7A1
:10155000AAFF10BD10B50446FFF78EFF7820FFF7F5
:10156000BAFF0020FFF7B7FF2046FFF7B4FFFFF7F1
:101570009AFF10BD70B504460D4605F1B001C8B222
:10158000FFF7E8FF102141EA1410FFF7E3FF04F032
:101590000F0141F00100FFF7DDFF70BD70B5064699
:1015A000002415E004F1B001C8B2FFF7D3FF012019
:1015B000FFF7D0FF1020FFF7CDFF002504E03046F5
:1015C000FFF7B8FF681CC5B2802DF8DB601CC4B201
:1015D000082CE7DB70BD10B50020FFF7DFFF10BD62
:1015E00010B58D20FFF7B6FF1420FFF7B3FFAF2033
:1015F000FFF7B0FF10BD10B58D20FFF7ABFF102037
:10160000FFF7A8FFAE20FFF7A5FF10BD10B5FFF74D
:1016100015FF642000F0E4FAAE20FFF79BFF0020E6
:10162000FFF798FF1020FFF795FF4020FFF792FF8C
:101630008120FFF78FFFC420FFF78CFFA120FFF769
:1016400089FFC820FFF786FFA620FFF783FFA820A9
:10165000FFF780FF3F20FFF77DFFD320FFF77AFFE2
:101660000020FFF777FFD520FFF774FF8020FFF7FA
:1016700071FFD920FFF76EFFF120FFF76BFFDA2033
:10168000FFF768FF1220FFF765FFDB20FFF762FF1F
:101690004020FFF75FFF2020FFF75CFF0220FFF7ED
:1016A00059FF8D20FFF756FF1420FFF753FFA420AA
:1016B000FFF750FFA620FFF74DFFAF20FFF74AFFCF
:1016C0000020FFF76BFF00210846FFF753FF10BD16
:1016D0002DE9F05F0446894615469A464FF0000B07
:1016E00000260027BAF1000F01D1B04601E04FF00B
:1016F000FF0822E0E85D203800F0FF0B7E2C04DDBF
:10170000002409F1010000F0FF0949462046FFF7D7
:1017100031FF00260BE00BEB4B014D4A02EB410180
:10172000895D81EA0800FFF705FF701CC6B2062E2E
:10173000F1DBA01DC4B2781CC7B2E85D0028D9D186
:10174000BDE8F09F2DE9F05F0746884691469B462D
:1017500000250024A246BBF1000F01D1002600E0C5
:10176000FF2638E019F80A002038C5B2782F04DDCA
:10177000002708F1010000F0FF0841463846FFF756
:10178000F9FE002409E004EB0511324A515C81EABC
:101790000600FFF7CFFE601CC4B2082CF3DB08F193
:1017A0000100C1B23846FFF7E5FE00240AE004EB71
:1017B00005110831274A515C81EA0600FFF7BAFE9D
:1017C000601CC4B2082CF2DB07F10800C7B20AF1B2
:1017D000010000F0FF0A19F80A000028C2D1BDE894
:1017E000F09F2DE9F04705460E46174698464FF004
:1017F000000907EB47004FEA400AB8F1000F01D19A
:10180000002400E0FF247E2D02DD0025701CC6B2FE
:1018100031462846FFF7AEFE4FF000090CE0514676
:101820000AF1010A0C4A515C81EA0400FFF782FECA
:1018300009F1010000F0FF09B9F1060FEFDBBDE887
:10184000F087000000040240A48240420080404231
:10185000A67D0008CE7F0008280000202DE9F04773
:1018600007460E469046994600244FEA081AB9F1F9
:10187000000F01D1002500E0FF25782F02DD0027B1
:10188000701CC6B231463846FFF774FE00240AE0E9
:1018900051460AF1010A9E4A515C81EA0500FFF7B0
:1018A00049FE601CC4B2082CF2DB701CC1B2384681
:1018B000FFF760FE00240AE051460AF1010A944A4B
:1018C000515C81EA0500FFF735FE601CC4B2082CAC
:1018D000F2DBBDE8F0872DE9F04782460F469046DF
:1018E000994600244FEA4815B9F1000F01D10026AE
:1018F00000E0FF2639465046FFF73CFE002408E092
:101900008449495D81EA0600FFF714FE6D1C601CE6
:10191000C4B2102CF4DB781CC1B25046FFF72AFE8B
:10192000002408E07B49495D81EA0600FFF702FEDA
:101930006D1C601CC4B2102CF4DBBDE8F0872DE9EF
:10194000FC410746884614461E4600208DF80500D7
:101950000A20B4FBF0F100FB114030308DF8040098
:101960000A20B4FBF0F4B4FBF0F100FB114030307E
:101970008DF803000A20B4FBF0F4B4FBF0F100FB97
:10198000114030308DF802000A20B4FBF0F4B4FBB3
:10199000F0F100FB114030308DF801000A20B4FB5B
:1019A000F0F4B4FBF0F100FB114030308DF8000092
:1019B00000250AE01DF80500302803D120200DF88D
:1019C000050000E003E0681CC5B2042DF2DB00BF97
:1019D00016B1012E0ED106E000236A464146384674
:1019E000FFF776FE07E000236A4641463846FFF7D8
:1019F000A9FE00E000BF00BFBDE8FC812DE9F04377
:101A00002DED028B83B080468946B0EE408A1746A2
:101A100000208DF80B002E208DF80800B5EEC08A4E
:101A2000F1EE10FA07D2B1EE480AB0EE408A2D204E
:101A30008DF8040002E020208DF80400BCEEC80AF6
:101A400010EE104A642104FB01F000EE100AB8EE1B
:101A5000400ADFED310A18EE200ABCEEC00A10EE93
:101A6000100AC6B20A20B4FBF0F100FB114030307E
:101A70008DF807000A20B4FBF0F4B4FBF0F100FB92
:101A8000114030308DF806000A20B4FBF0F404F168
:101A90003000C0B28DF805000A2096FBF0F100FB83
:101AA00011603030C0B28DF80A000A2096FBF0F0C9
:101AB000C6B206F13000C0B28DF8090001250AE077
:101AC00001A8405D302803D1202001A9485500E03D
:101AD00003E0681CC5B2032DF2DB00BF17B1012F74
:101AE0000ED106E0002301AA49464046FFF7F0FD6B
:101AF00007E0002301AA49464046FFF723FE00E025
:101B000000BF00BF03B0BDEC028BBDE8F083000056
:101B100088030020667B00080000C84210B5044618
:101B20006FF0040000F094F9E11704EB5171C1F378
:101B3000C701394A11701046007800EB4001C1EB33
:101B4000C0104FF6FF7101EAC0003449088010BD93
:101B50000146314A12784A434FF0E0235A6100228D
:101B60009A611A46126942F001021A6100BF4FF0F1
:101B7000E022106900F001021AB100F48032002A5C
:101B8000F5D04FF0E022126922F001024FF0E0237D
:101B90001A6100229A6170470146204A12884A431E
:101BA0004FF0E0235A6100229A611A46126942F00E
:101BB00001021A6100BF4FF0E022106900F001023B
:101BC0001AB100F48032002AF5D04FF0E0221269F9
:101BD00022F001024FF0E0231A6100229A6170475F
:101BE00070B504464FF4077094FBF0F0C6B24FF4A2
:101BF000077094FBF0F100FB114085B205E04FF453
:101C00000770FFF7C9FF701EC6B2002EF7D115B1DD
:101C10002846FFF7C1FF70BD2E00002030000020D5
:101C2000014600BF704700BF4C4A128802F04002D4
:101C3000002AF9D0C2B2494B9A80704710B588B0DB
:101C400004460121084600F077FE0121102000F033
:101C5000CDFE07220921424800F05BFC07220A2141
:101C60003F4800F056FC4FF4C060069002208DF80B
:101C70001C008DF81D0000208DF81E0001208DF83D
:101C80001F0006A9364800F0B9FB02940020ADF809
:101C90000C00ADF80E00ADF81000ADF814000C20EB
:101CA000ADF8120002A92D4801F001F801212B48DE
:101CB00001F085F8012240F22551284801F035F95C
:101CC00025208DF8040003208DF805008DF806000E
:101CD00001208DF8070001A800F06DF808B010BDD4
:101CE00010B540F225511D4801F05AF910B31B48B8
:101CF00001F094F8C4B21B48008800F40040C8B951
:101D00001848008800F4804060B10A2C03D00020FD
:101D10001449088020E01348008840F4004011492D
:101D2000088019E00D2C06D10E48008840F4804050
:101D30000C49088010E00B480088C0F30D000A49E8
:101D40000C5408480088401C064908800846008852
:101D5000C72801DD0020088010BD000000100140F0
:101D60000000024038000020980300200948804706
:101D700009480047FEE7FEE7FEE7FEE7FEE7FEE76D
:101D8000FEE7FEE7FEE7FEE704480549054A064B85
:101D9000704700007509000889010008E00700206D
:101DA000E00D0020E0090020E00900203249014355
:101DB000324A1160704770B5002100230F22C478A9
:101DC0001CB32E4C246804F4E064C4F5E064C4F34E
:101DD0000721C1F10404E3B20A4144789C40E1B216
:101DE0008478144021430C07210E254C0578615559
:101DF000047804F01F050124AC4005786D11AD0096
:101E000005F1E025C5F8004109E0047804F01F055C
:101E10000124AC401B4D0678761145F8264070BD74
:101E2000194A0A400243154B1B1F1A60704739B10B
:101E3000124A121D12680243104B1B1D1A6006E065
:101E40000E4A121D126882430C4B1B1D1A6070470C
:101E5000042808D14FF0E021096941F004014FF056
:101E6000E022116107E04FF0E021096921F004014F
:101E70004FF0E022116170470000FA050CED00E020
:101E800000E400E080E100E080FFFF1F10B50121C9
:101E9000080200F000FE00214FF4807000F0FBFD0E
:101EA00010BD30B50246002000235068F84C204099
:101EB0000D790C6844EA0524204350609068F54C85
:101EC0002040D1E903542C438D682C434D7944EADA
:101ED000450420439060D06A20F470000C7D641E9D
:101EE000E4B2234340EA0350D06230BD00210160D8
:101EF000017141718160C16001610121017570470B
:101F00000021E54A1168E54A1140D0E900231A434F
:101F100083681A43C3681A431143E14AC2F80413A1
:101F200070470021016041608160C160704721B14C
:101F3000826842F00102826003E0826822F00102BE
:101F4000826070470A4600214168D64B1940114310
:101F5000416070474162826270470A4600214168D1
:101F600021F01F0111434160704738B1CA49096827
:101F700041F40001CA4AC2F8041306E0C6490968E0
:101F800021F40001C64AC2F80413704738B1C249AF
:101F9000096841F48001C24AC2F8041306E0BE4950
:101FA000096821F48001BE4AC2F804137047F0B5F5
:101FB00004460D4600200021092D11DDE068A5F141
:101FC0000A0606EB4607072606FA07F18843A5F13D
:101FD0000A0606EB460603FA06F10843E0600CE049
:101FE000206905EB4507072606FA07F1884305EB4C
:101FF000450603FA06F108432061072A0FDA606BF1
:10200000561E06EB86071F2606FA07F18843561E62
:1020100006EB860605FA06F10843606322E00D2A06
:102020000FDA206BD61F06EB86071F2606FA07F18C
:102030008843D61F06EB860605FA06F1084320639F
:1020400010E0E06AA2F10D0606EB86071F2606FAED
:1020500007F18843A2F10D0606EB860605FA06F1A4
:102060000843E062F0BD816841F0804181607047C3
:10207000014600208A6802F080420AB1012000E097
:102080000020704721B1826842F48062826003E0E0
:10209000826822F480628260704721B1826842F0D7
:1020A0000202826003E0826822F0020282607047CE
:1020B00010B50A4600210023416821F46041531EF7
:1020C00041EA4331416010BD21B1426842F40062EF
:1020D000426003E0426822F40062426070470146B9
:1020E000C86C80B270476C48001D0068704721B111
:1020F000826842F48072826003E0826822F4807217
:102100008260704721B1826842F40072826003E00D
:10211000826822F400728260704738B15E490968B3
:1021200041F400515E4AC2F8041306E05A490968B6
:1021300021F400515A4AC2F804137047F0B504461E
:102140001546002000220026092911DDE068A1F1D2
:102150000A0707EB470C072707FA0CF29043A1F197
:102160000A0707EB470703FA07F21043E0600CE0A9
:10217000206901EB410C072707FA0CF2904301EBB1
:10218000410703FA07F210432061A06BC0F3015628
:10219000EF1C06F1010CA7EB0C0707EB870C1F27C0
:1021A00007FA0CF29043EF1C06F1010CA7EB0C07A9
:1021B00007EB870701FA07F21043A063F0BD10B5E3
:1021C0000A4600210023816B21F44011531E41EA8D
:1021D0000351816310BD08B5002300930090009B5C
:1021E0000B440093009B1A6008BD0A4600218168D9
:1021F00021F470211143816070470A4600218168F3
:1022000021F44011114381607047816841F48001DD
:1022100081607047014600208A6802F480020AB19A
:10222000012000E00020704721B1426842F4806242
:10223000426003E0426822F480624260704721B14C
:10224000426842F48052426003E0426822F48052C5
:102250004260704708B5024600200090009201F1EC
:102260002800009B184400900098006880B208BDC8
:1022700010B50B460021D9B2012404FA01F11AB1BC
:1022800044680C43446002E044688C43446010BDE1
:10229000FFFEFFFCFDF7FFC004230140E030FCFF20
:1022A00000200140FFFD3FFF0246002013680B4065
:1022B0000BB1012000E000207047CA430260704764
:1022C00070B502460020002300240B125568012639
:1022D0008E4005EA060415681D4015B10CB10120B9
:1022E00000E0002070BD00220A12D3430360704753
:1022F00010B504469848844208D10121084600F0F0
:1023000086FB0021012000F082FB76E093488442A6
:1023100008D10121022000F07AFB0021022000F008
:1023200076FB6AE08E48844208D10121042000F047
:102330006EFB0021042000F06AFB5EE089488442C5
:1023400008D10121082000F062FB0021082000F0E4
:102350005EFB52E08448844208D10121102000F045
:1023600056FB0021102000F052FB46E07F488442DB
:1023700008D10121202000F04AFB0021202000F09C
:1023800046FB3AE07A48844208D10121402000F01F
:102390003EFB0021402000F03AFB2EE075488442CD
:1023A00008D10121802000F032FB0021802000F0C4
:1023B0002EFB22E07048844208D10121801500F0F4
:1023C00026FB0021A01500F022FB16E06B4884429A
:1023D00008D10121401500F01AFB0021601500F022
:1023E00016FB0AE06648844207D10121001500F07F
:1023F0000EFB0021201500F00AFB10BDF0B50A46C7
:1024000000210023002400BF3DE0012505FA01F36F
:10241000156805EA03049C4234D105684F00032681
:10242000BE40B543056015794E00B540066835439A
:1024300005601579012D02D01579022D16D1856818
:102440004F000326BE40B543856055794E00B54028
:10245000866835438560456801268E40B5434560F2
:10246000456896798E40B6B235434560C5684F00E1
:102470000326BE40B543C560D5794E00B540C66859
:102480003543C560491C1029BFD3F0BD4FF6FF711D
:1024900001600021017141718171C171704708B5FE
:1024A0004FF480320092009A0A430092009AC2616F
:1024B000C161009AC261C2690092C269009208BDFE
:1024C0000246002013690B400BB1012000E0002000
:1024D00070470146086980B2704702460020536980
:1024E0000B400BB1012000E0002070470146486915
:1024F00080B2704701837047418370470AB10183FE
:1025000000E0418370474161704742694A4042613F
:102510007047F0B5002300244D07ED0E02FA05F3D5
:10252000CE1000F1200555F826504E07F70E0F2665
:10253000BE40B543CF1000F1200646F82750CE101C
:1025400000F1200555F8265045EA0304CE1000F1AD
:10255000200545F82640F0BD00000240000402407E
:1025600000080240000C024000100240001402402B
:1025700000180240001C02400020024000240240DB
:1025800000280240F948006840F00100F74908605F
:102590000020F64908310860F4480068F449084012
:1025A000F2490860F348091D0860F348EF49843197
:1025B0000860F0481038091D0860EC48006820F4F5
:1025C0008020EA4908600020E8490C310860E749AA
:1025D0008C31086070470021E44A921C117011464A
:1025E0000870704710B501460022002300204A11F0
:1025F000012A02D1DD4C236808E0022A03D1DB4C1A
:102600007034236802E0D94C7434236801F01F024F
:10261000012494401C400CB1012000E0002010BDBA
:1026200038B5002000900024002500BF3120FFF7BE
:10263000D9FF05460098401C00900098B0F5A04FC7
:1026400001D0002DF2D03120FFF7CCFF08B10124DA
:1026500000E00024204638BD01460020C34A10682F
:1026600020F0F80040EAC10010607047C3490860DC
:1026700070470021BD4A703211701170012802D0DC
:1026800004280AD104E00121B84A7032117005E033
:102690000521B64A7032117000E000BF00BF7047DC
:1026A000B7490860704770B5049C41EA821501265D
:1026B000C6EB530645EA0645054345EA0465AB4EBD
:1026C000361D356070BDAD4908667047820142EA2B
:1026D0000172A64B84331A607047A8498866704718
:1026E00010B5830143EA016343EA02739F4C8834C7
:1026F000236010BDA14908677047A049C8647047AE
:1027000002460020994B0833186820F0EC6042EA3A
:1027100001031843954B08331860704702460020A8
:10272000924B0833186820F0784042EA01031843BE
:102730008E4B083318607047014600208B4A0832E0
:10274000106820F003000843106070478748083085
:10275000006800F00C00704701460020834A0832F0
:10276000106820F0F0000843106070470146002018
:102770007E4A0832106820F4E05008431060704729
:1027800001460020794A0832106820F4604040EA8F
:10279000C10010607047F0B500210022002402251E
:1027A00000260223714F08373F6807F00C0121B162
:1027B000042905D0082937D105E0724F076036E0BB
:1027C000714F076033E0694F3F1D3F68C7F3805684
:1027D000664F3F1D3F6807F03F036EB16A4FB7FB7E
:1027E000F3F7DFF888C10CF1040CDCF800C0CCF37F
:1027F000881C07FB0CF40CE0624FB7FBF3F7DFF823
:102800006CC10CF1040CDCF800C0CCF3881C07FB95
:102810000CF4564F3F1D3F68C7F301477F1C7D00F6
:10282000B4FBF5F7076002E0564F076000BF00BF3A
:102830004E4F08373F6807F0F0010909534F7A5CA3
:102840000768D7404760494F08373F6807F4E051B1
:10285000890A4E4F7A5C4768D7408760434F0837F4
:102860003F6807F46041490B484F7A5C4768D7409E
:10287000C760F0BD002100F44072B2F5407F0AD17C
:102880003A4A0832116821F4F811414A02401143D2
:10289000364A08321160354A70321268C0F30B03B1
:1028A0001A43324B70331A60704735494439086017
:1028B00070473349403908607047364908607047AF
:1028C00001460020294A8C32106820F01F004A1E61
:1028D0001043264A8C321060704701460020234A7C
:1028E0008C32106820F4F8504A1E40EA02201F4A39
:1028F0008C3210607047014600201C4A8C321068F0
:1029000020F4401008431060704701460020174A29
:102910008C32106820F44000084310607047014674
:102920000020124A8C32106820F4403008431060B6
:10293000704719490860704739B10C4A3032126843
:1029400002430A4B30331A6006E0084A30321268FC
:102950008243064B30331A607047F9B1034A343270
:1029600012680243014B34331A601CE00038024005
:10297000FFFFF6EA1030002400300020000047423C
:10298000800E47420024F40000127A003A00002032
:10299000FFFCFF0F5C014742E01147428F4A12687B
:1029A00082438E4B1A60704739B18C4A121D1268EF
:1029B00002438A4B1B1D1A6006E0884A121D1268EA
:1029C0008243864B1B1D1A60704739B1834A0C3213
:1029D00012680243814B0C331A6006E07F4A0C32C6
:1029E000126882437D4B0C331A60704739B17B4AC1
:1029F000103212680243794B10331A6006E0774AAE
:102A0000103212688243754B10331A60704739B127
:102A1000724A243A12680243704B243B1A6006E063
:102A20006E4A243A126882436C4B243B1A6070470A
:102A300039B16A4A203A12680243684B203B1A6057
:102A400006E0664A203A12688243644B203B1A60D3
:102A5000704739B1614A1C3A126802435F4B1C3B14
:102A60001A6006E05D4A1C3A126882435B4B1C3BCD
:102A70001A60704739B1594A143A12680243574BE9
:102A8000143B1A6006E0554A143A12688243534BCD
:102A9000143B1A60704739B1504A103A1268024329
:102AA0004E4B103B1A6006E04C4A103A12688243C3
:102AB0004A4B103B1A60704739B1484A1C321268C1
:102AC0000243464B1C331A6006E0444A1C3212682B
:102AD0008243424B1C331A60704739B13F4A20325F
:102AE000126802433D4B20331A6006E03B4A203215
:102AF00012688243394B20331A60704739B1374A24
:102B0000243212680243354B24331A6006E0334AFC
:102B1000243212688243314B24331A60704739B132
:102B20002E4A2C32126802432C4B2C331A6006E0DA
:102B30002A4A2C3212688243284B2C331A60704781
:102B400039B1264A303212680243244B30331A60BE
:102B500006E0224A303212688243204B30331A603A
:102B60007047012808D11D493C31096841F008012E
:102B70001A4A3C32116007E018493C31096821F0DB
:102B80000801164A3C321160704739B1134A273A9E
:102B900012780243114B273B1A7006E00F4A273A7E
:102BA000127882430D4B273B1A7070470B48403018
:102BB000006840F080700949403108607047014664
:102BC0000020064A283A12680A400AB1012000E0B3
:102BD0000020704701492639087070473438024098
:102BE00010B50446FA48844208D101211020FFF7AD
:102BF00052FF00211020FFF74EFF57E0F5488442B6
:102C000009D101214804FFF735FF00214FF40030BE
:102C1000FFF730FF4AE0F048844209D101218804DF
:102C2000FFF728FF00214FF48020FFF723FF3DE04E
:102C3000EA48844209D10121C804FFF71BFF0021A3
:102C40004FF40020FFF716FF30E0E548844209D139
:102C500001210805FFF70EFF00214FF48010FFF758
:102C600009FF23E0DF48844208D101212020FFF73B
:102C700012FF00212020FFF70EFF17E0DA48844200
:102C800009D101218807FFF7F5FE00214FF08040B0
:102C9000FFF7F0FE0AE0D548844207D10121400544
:102CA000FFF7E8FE00216005FFF7E4FE10BD2DE907
:102CB000FF4705460E460024A14600BFA046B08946
:102CC00000B100BF2C8A24F44054F08804432C82C5
:102CD000AC8941F20C608443B08831890843718922
:102CE00008430443AC81AC8A24F44074B0890443A3
:102CF000AC826846FFF74FFDB548854202D0B9481F
:102D0000854202D1DDF80C9001E0DDF80890A88939
:102D100000F4004040B109EBC90000EB0910316834
:102D20004900B0FBF1F707E009EBC90000EB09101F
:102D300031688900B0FBF1F76420B7FBF0F00401C3
:102D40002009642101FB1078A88900F4004040B1FB
:102D5000322000EBC800B0FBF1F000F007000443A4
:102D600008E0322000EB08106421B0FBF1F000F025
:102D70000F0004432C81BDE8FF874FF4165101601A
:102D800000218180C18001810C214181002181814C
:102D9000704710B502460020108A20F470600B883E
:102DA0004C8823438C882343CC88234318431082C8
:102DB00010BD0021018041808180C180704721B118
:102DC000828942F40052828104E082894DF6FF73C9
:102DD0001A4082817047028B02F47F420283028B89
:102DE0000A430283704721B1828942F40042828102
:102DF00003E08289C2F30E028281704721B1828A88
:102E000042F40062828204E0828A4FF2FF731A4029
:102E100082827047C1F30802828070470146888829
:102E2000C0F308007047028A4FF6F0731A4002821E
:102E3000028A0A430282704721B1828942F002026B
:102E4000828104E082894FF6FD731A4082817047C7
:102E500082894FF2FF731A40828182890A438281FC
:102E60007047028A4FF6DF731A400282028A0A43D1
:102E70000282704721B1028A42F48042028204E059
:102E8000028A4BF6FF731A4002827047818941F033
:102E900001018181704721B1828A42F00802828259
:102EA00004E0828A4FF6F7731A4082827047028BE1
:102EB000D2B20283028B42EA01220283704721B11F
:102EC000828A42F02002828204E0828A4FF6DF7317
:102ED0001A408282704721B1828A42F010028282B7
:102EE00004E0828A4FF6EF731A4082827047828A2A
:102EF0004FF6FB731A408282828A0A4382827047AD
:102F000021B1828A42F00202828204E0828A4FF674
:102F1000FD731A40828270471AB1838A0B43838201
:102F200002E0838A8B4383827047F0B50346002416
:102F300000260025002040F66A17B94200D100BFE4
:102F40001846C1F3421401F01F06012707FA06F5DF
:102F5000012C01D10C3004E0022C01D1103000E032
:102F600014301AB107682F43076002E00768AF43C7
:102F70000760F0BD02460020B1F5007F00D100BF20
:102F800013880B400BB1012000E00020704701F4D2
:102F90000072B2F5007F00D100BFCA4302807047C3
:102FA00070B50246002400230025002040F66A1672
:102FB000B14200D100BFC1F3421501F01F03012649
:102FC00006FA03F3012D13D19689334017E0000070
:102FD000001001400044004000480040004C004008
:102FE000005000400014014000780040007C004088
:102FF000022D02D1168A334001E0968A33400C122A
:10300000012606FA04F41688344013B10CB10120ED
:1030100000E0002070BD10B50022002340F66A14C5
:10302000A14200D100BF0A1201249440A3B2DC43A4
:10303000048010BD10B501218803FFF72CFD00218D
:103040004FF48040FFF727FD10BD1C490860704712
:103050001B490862704730B500228B071C0F0F23F5
:1030600003FA04F2154B08338C1053F824309343C1
:10307000124C08348D1044F8253023468C1053F838
:1030800024308C07240F00FA04F423430B4C08343B
:103090008D1044F8253030BD0949DC310860704797
:1030A000084908607047002004492031096801F48C
:1030B000807109B1012000E0002070470038014014
:1030C000000027420004274210B50446FE4884420F
:1030D00008D101210846FFF7DEFC00210120FFF79F
:1030E000DAFC9DE0B4F1804F08D101210846FFF7DA
:1030F000C1FC00210120FFF7BDFC91E0F3488442B0
:1031000008D101210220FFF7B5FC00210220FFF7C2
:10311000B1FC85E0EE48844208D101210420FFF78C
:10312000A9FC00210420FFF7A5FC79E0E9488442CE
:1031300008D101210820FFF79DFC00210820FFF79E
:1031400099FC6DE0E448844208D101211020FFF78A
:1031500091FC00211020FFF78DFC61E0DF488442E4
:1031600008D101212020FFF785FC00212020FFF756
:1031700081FC55E0DA48844208D101210220FFF7A2
:103180008AFC00210220FFF786FC49E0D5488442F2
:1031900009D101210804FFF77EFC00214FF48030A3
:1031A000FFF779FC3CE0D048844209D10121480472
:1031B000FFF771FC00214FF40030FFF76CFC2FE0AB
:1031C000CA48844209D101218804FFF764FC002128
:1031D0004FF48020FFF75FFC22E0C548844208D10D
:1031E00001214020FFF746FC00214020FFF742FC70
:1031F00016E0C048844208D101218020FFF73AFC44
:1032000000218020FFF736FC0AE0BB48844207D14A
:1032100001218015FFF72EFC0021A015FFF72AFCE5
:1032200010BD00220288A84B98420ED0AC4B9842A9
:103230000BD0B0F1804F08D0A44B984205D0A44BDE
:10324000984202D0A34B984204D14FF68F731A4094
:103250004B881A43A04B984207D0A04B984204D009
:103260004FF6FF431A400B891A4302804B68C36232
:103270000B880385944B984202D0994B984201D118
:103280008B7A03860123838270474FF0FF314160C0
:103290000021018001814180817270470185828215
:1032A00070470A46002101884FF68F731940114379
:1032B0000180704741627047C16270470146486AA9
:1032C00070470146088D704721B1028842F0020222
:1032D000028004E002884FF6FD731A4002807047B6
:1032E00021B1028842F00402028004E002884FF615
:1032F000FB731A400280704721B1028842F08002BD
:10330000028004E002884FF67F731A400280704703
:1033100002884FF6F7731A40028002880A4302803F
:10332000704702884FF6FF431A40028002880A4322
:103330000280704721B1028842F00102028004E05D
:1033400002884FF6FE731A400280704770B5002461
:1033500000220023058C4FF6FE7635400584028C52
:103360008388048B4FF68F752C40B51E2C400D883A
:103370002C43751E2A408D892A434D882A43524D7D
:10338000A84202D0564DA84213D14FF6F7752A40F5
:10339000CD892A434FF6FB752A408D882A434FF684
:1033A000FF652B404FF6FF552B400D8A2B434D8A6E
:1033B0002B43838004838D684563028470BD70B5A0
:1033C000002400220023058C4FF6EF76354005845B
:1033D000028C8388048B48F6FF752C404FF6FF451E
:1033E0002C400D884FF6FF7606EA05252C434FF654
:1033F000DF752A408D8906EA05152A434D8806EABD
:1034000005152A43304DA84202D0354DA8421DD1A2
:103410004FF67F752A40CD894FF6FF7606EA0515EF
:103420002A434FF6BF752A408D8806EA05152A43C0
:103430004FF6FF352B404FF2FF752B400D8A06EA01
:1034400085052B434D8A06EA85052B43838004833B
:103450008D688563028470BD70B50024002200234E
:10346000058C4FF6FF6635400584028C8388848B7B
:103470004FF68F752C404FF6FC752C400D882C4371
:103480004FF6FF552A408D894FF6FF7606EA05254F
:103490002A434D8806EA05252A430B4DA84202D04F
:1034A0000F4DA84238D14FF2FF752A40CD894FF613
:1034B000FF7606EA05252A434FF6FF352A408D8818
:1034C00006EA05252A4319E00000014000040040F7
:1034D00000080040000C00400010004000140040B4
:1034E0000004014000400140004401400048014008
:1034F00000180040001C0040002000404EF6FF7500
:103500002B404DF6FF752B400D8A06EA05152B431F
:103510004D8A06EA05152B43838084838D68C56335
:10352000028470BD70B5002200230024058C4EF685
:10353000FF7635400584038C8488828B48F6FF75BE
:103540002A404FF6FF452A400D884FF6FF7606EADF
:1035500005252A434DF6FF752B408D8906EA053572
:103560002B434D8806EA05352B43FE4DA84202D079
:10357000FD4DA84208D14BF6FF752C400D8A4FF641
:10358000FF7606EA85152C43848082838D68056466
:10359000038470BD00210180418081808160818130
:1035A000C18101824182704770B50346002000242A
:1035B0001846183001258D40ACB21D8CA5431D84E2
:1035C00009B108290AD100EB610005684FF68F7632
:1035D000354005600568154305600FE00D1FC5F314
:1035E0004E052844056848F6FF76354005600568B5
:1035F0004FF6FF7606EA02263543056070BD41634B
:10360000704781637047C1637047016470470A4621
:103610000021018B4FF68F731940114301837047CE
:103620000A460021018B48F6FF7319404FF6FF73DD
:1036300003EA02231943018370470A460021818B64
:103640004FF68F7319401143818370470A4600215A
:10365000818B48F6FF7319404FF6FF7303EA02238C
:103660001943818370470A460021018B4FF6F77397
:1036700019401143018370470A460021018B4FF224
:10368000FF7319404FF6FF7303EA022319430183C6
:1036900070470A460021818B4FF6F773194011439A
:1036A000818370470A460021818B4FF2FF731940D6
:1036B0004FF6FF7303EA02231943818370470A46DA
:1036C0000021018B4FF6FB731940114301837047B2
:1036D0000A460021018B4FF6FF3319404FF6FF7366
:1036E00003EA02231943018370470A460021818BB4
:1036F0004FF6FB7319401143818370470A4600213E
:10370000818B4FF6FF3319404FF6FF7303EA022314
:103710001943818370470A460021018B4FF67F735E
:1037200019401143018370470A460021018BC1F300
:103730000E014FF6FF7303EA02231943018370471A
:103740000A460021818B4FF67F7319401143818314
:1037500070470A460021818BC1F30E014FF6FF73BB
:1037600003EA02231943818370470A460021018C32
:103770004FF6FD7319401143018470470A4600213A
:10378000018C4FF6F77319401143018470470A46C4
:103790000021018C4FF6DF7319404FF6FF7303EAE7
:1037A00002131943018470470A460021018C4FF629
:1037B0007F7319404FF6FF7303EA02131943018424
:1037C00070470A460021018C4FF6FF5319404FF60F
:1037D000FF7303EA02231943018470470A4600215C
:1037E000018C4FF2FF7319404FF6FF7303EA022377
:1037F0001943018470470A460021018C4DF6FF737E
:1038000019404FF6FF7303EA0233194301847047EE
:1038100030B5002301248C40A3B2048C9C43048463
:10382000048C02FA01F5ADB22C43048430BD30B5EE
:10383000002304248C40A3B2048C9C430484048C95
:1038400002FA01F5ADB22C43048430BD828B4FF2F5
:10385000FF331A408283828B4FF6FF7303EA012302
:103860001A4382837047F0B50C46154600210022AA
:103870000026078C4EF6FF7C07EA0C070784818B35
:10388000028C4FF6FF7707EA043640F6FF473940CF
:103890004FF6FF7707EA052739434FF6FF7707EA28
:1038A0000337394345F6FF773A4046F480573A43A9
:1038B00081830284F0BD828B4FF6F3731A408283BA
:1038C000828B0A4382837047F0B50C46154600216F
:1038D00000220026078C4FF6FF6C07EA0C070784CE
:1038E000818B028C4FF6FF7707EA04264FF60C77A0
:1038F00039404FF6FF7707EA03172F4339434FF25A
:10390000FF573A4046F480773A4381830284F0BD02
:10391000028B4FF2FF331A400283028B4FF6FF7384
:1039200003EA01231A4302837047F0B50C4615469B
:10393000002100220026078C4FF6EF7C07EA0C07D7
:103940000784018B028C4FF6FF7707EA041640F6D6
:10395000FF4739404FF6FF7707EA033739434FF601
:10396000FF7703E0000001400004014007EA05275B
:1039700039434FF65F773A4046F010073A430183E8
:103980000284F0BD028B4FF6F3731A400283028B60
:103990000A4302837047F0B50C4615460021002209
:1039A000068C4FF6FE773E400684018B028C4FF664
:1039B0000C7631407E1C06EA03162E4331434FF647
:1039C000F576324044F00106324301830284F0BDB3
:1039D00070B505460C46208850B92389A2886188B5
:1039E0002846FFF7D8FFE1882846FFF7CBFF25E000
:1039F000208804280AD12389A28861882846FFF7F5
:103A000094FFE1882846FFF783FF17E02088082805
:103A10000AD12389A28861882846FFF755FFE188EB
:103A20002846FFF748FF09E02389A28861882846D5
:103A3000FFF719FFE1882846FFF708FF70BD002156
:103A400001804180012181800021C1800181704776
:103A50002DE9F04105460C4600260127608808B98B
:103A6000022600E00026A088012801D1022700E0FC
:103A700001272088A0B92389A28861882846FFF7FA
:103A80008AFFE1882846FFF77DFF23893A463146C1
:103A90002846FFF74AFFE1882846FFF739FF13E081
:103AA0002389A28861882846FFF73FFFE1882846DE
:103AB000FFF72EFF23893A4631462846FFF76BFF72
:103AC000E1882846FFF75EFFBDE8F0810146486BBC
:103AD00070470146886B70470146C86B70470146C6
:103AE000086C70470A884B881A438B881A43CB8826
:103AF0001A430B891A434B891A438B891A43A0F83E
:103B0000442070470021018041808180C180018173
:103B100041818181704731B1B0F8442042F40042C4
:103B2000A0F8442005E0B0F84420C2F30E02A0F84B
:103B30004420704721B1828842F00402828004E070
:103B400082884FF6FB731A408280704721B18288C9
:103B500042F00102828004E082884FF6FE731A4030
:103B6000828070471AB183890B43838102E0838985
:103B70008B43838170478182704702460020138AFD
:103B80000B400BB1012000E000207047CA430282C5
:103B9000704730B50246002000230024158A05EA4C
:103BA0000103958905EA010413B10CB1012000E07D
:103BB000002030BDCA430282704741EA0203A0F8E8
:103BC000483070471AB183890B43838102E08389AF
:103BD0008B438381704721B1828842F00802828042
:103BE00004E082884FF6F7731A408280704701899B
:103BF0004FF6F8721140018170470A460021018991
:103C00004FF68F73194011430181704730B5044658
:103C10000D4629462046FFF7F0FF208940F00700B7
:103C2000208130BD2DE9F04104460D4616461F4661
:103C3000602D06D13B46012231462046FFF775FE36
:103C400005E03B46012231462046FFF7A4FE294607
:103C50002046FFF7D2FF208940F007002081BDE811
:103C6000F08130B50C4600210189C9B24FF6FF75CD
:103C700005EA0325154325432943018130BD2DE97C
:103C8000F04105460E4617469846002443463A46FC
:103C900031462846FFF7E5FF2C894FF6F8700440BF
:103CA00044F007044FF68F70044044F070042C81F8
:103CB000BDE8F081F0B504460D4616461F463B466A
:103CC000324629462046FFF7CCFF208940F4804049
:103CD0002081F0BD82884FF68F731A4082808288DF
:103CE0000A438280704702894FF6F8731A400281B6
:103CF00002890A430281704702894FF67F731A4096
:103D0000028102890A4302817047F0B50C461546CC
:103D10001E460021002200230189028B038C4FF6EE
:103D2000F877394021434FF6FC473A4040F20117FB
:103D30003A434FF6DD773B404FF6FF7707EA061729
:103D40002F433B43018102830384F0BD21B182886C
:103D500042F08002828004E082884FF67F731A402E
:103D600082807047A0F85010704700000020414941
:103D70000860091D0860091D0860091D08603E48AB
:103D80003C4914310860704700213A498279002A81
:103D90003AD00A46126803689A430B461A600A1D15
:103DA000126803689A430B1D1A60027911440A686D
:103DB00003681A430A602F4A0832126803689A435C
:103DC0002C4B08331A601A1D126803689A43294B5A
:103DD0000C331A604279102A0ED11A1F1268036838
:103DE0001A43244B08331A601A1D126803681A43D9
:103DF000204B0C331A600DE01E49427911440A68C9
:103E000003681A430A6005E0027911440A680368EE
:103E10009A430A6070470021016001710C214171D1
:103E20000021817170471349103109680143114A1B
:103E3000103211607047014600200E4A1432126899
:103E40000A400AB1012000E00020704709491431FE
:103E50000860704701460020064A143212680A4082
:103E60000AB1012000E000207047024914310860C7
:103E700070470000003C0140FFFF7F0010B5DAA151
:103E8000DC4800F041FE00282ED1DBA1D94800F02B
:103E90003BFE80B1DA48007830BBDA48006808B9E8
:103EA000012000E00020D74908600120D6490870B1
:103EB000D349087018E0D5A1CE4800F025FE98B18E
:103EC000CF48007801280FD1CE48001D006808B9FE
:103ED000012000E00020CB49091D08600120CD49E8
:103EE00008700020C649087010BD10B50446CA48C5
:103EF000008800F4004000282ED00020C649098820
:103F0000C1F30E01BB4A50541146C4A000F084FC1A
:103F1000B5A1B84800F0F8FD18B10120C1490870FA
:103F200014E0B5A1B34800F0EFFD18B10120BD4980
:103F300008700BE0B5A1AF4800F0E6FD18B1012014
:103F4000B849087002E00020B6490870FFF796FFF4
:103F500014B10020B049088010BD70B5044600259A
:103F6000AD48008800F4004058B10020AA490988F3
:103F7000C1F30E019F4A50542146104600F0C4FD83
:103F80000546284670BD2DE9F04106460D4614460B
:103F900000270020A04908803146A0A0FDF7BBF80B
:103FA0003146A1A000F038FCE5B1DCB113E064209B
:103FB000FDF716FE9848008800F4004058B12846E6
:103FC000FFF7CBFF20B129469CA000F025FC06E0BE
:103FD000002091490880601E80B2041EE7D100BF16
:103FE00004B901273846BDE8F0812DE9F0410646C5
:103FF0000D4614460027002087490880314694A0CA
:10400000FDF789F8C5B1BCB10FE00A20FDF7E8FD66
:104010008148008800F4004038B12846FFF79DFF32
:1040200000B106E000207C490880601E80B2041EBA
:10403000EBD100BF04B901273846BDE8F08110B5C7
:1040400000BF8448008800F040000028F9D02B20F1
:104050008049091D08800F20FDF7C2FD00BF7D4883
:10406000008800F040000028F9D02B207949091D74
:1040700008800F20FDF7B4FD00BF7648008800F0EF
:1040800040000028F9D02B207249091D08804FF408
:10409000FA70FDF7A5FD14226FA170A0FFF773FF62
:1040A00010BD70B5FFF7CBFF08B1002070BD322204
:1040B0006BA16CA0FFF767FF6EA0FFF74EFF0546F0
:1040C0002C782046F2E7F8B56DA0006800900A222F
:1040D00061A16CA0FFF757FF6DA0FFF73EFF0646FA
:1040E00067A1304600F010FD04466946601C00F0F0
:1040F00005FD05462846F8BD1FB5044666486A46D4
:1041000066A10368284600F093FB204604B010BD6A
:1041100006E0FFF794FFC8224FA167A0FFF733FF27
:1041200014224DA14DA0FFF72EFF0028F1D105E08C
:104130000A20FDF755FD0120FFF7D7FEF8E72DE92E
:10414000F04188B0002540F2E73600240027A04661
:104150005DA000F061FB02E062A000F05DFB0A22BE
:104160003DA167A0FFF70FFF0028F5D102E067A08F
:1041700000F052FB50226CA16EA0FFF704FF002854
:10418000F5D16E4803686E486EA10268684600F07B
:104190004FFB02E070A000F03FFB50222EA16846CA
:1041A000FFF7F1FE0028F5D10A222BA173A0FFF73B
:1041B000EAFE394874A10268684600F039FB0A2219
:1041C00025A16846FFF7DFFEFFF77DFF7349086012
:1041D0000846016872A000F01FFB76A000F01CFBEF
:1041E000204608B0BDE8F0816170703A68627021C5
:1041F00000000000F80100206F70656E00000000F4
:1042000000000020B082404203000020636C6F7306
:1042100065000000040000202200002025730D0A24
:1042200000000000580000205B45535038323636FD
:1042300020636D645D25730D0A0000005B455350DB
:10424000383236362061636B5D3A25730D0A000003
:1042500025730000004800404F4B0000415400000F
:104260003A00000041542B43495053544154555394
:10427000000000002B4349505354415455533A0019
:104280002200000041542B434946535200000000D5
:1042900053544149502C22004C00002041542B43E0
:1042A000495053544152543D302C22544350222CF7
:1042B000222573222C25730041542B4349504D4F26
:1042C00044453D30000000005B64656275675D45F4
:1042D00053503832363620696E69742073746172B7
:1042E000740D0A005B4552524F525D534554204DA8
:1042F0004F4445204641494C442E2E0D0A000000F3
:1043000041542B43574D4F44453D31005B4552527C
:104310004F525D525354204D4F44454C2046414925
:104320004C442E2E0D0A00005749464920474F5451
:104330002049500041542B52535400005400002097
:104340005000002041542B43574A41503D222573D1
:10435000222C2225732200005B4552524F525D539E
:10436000455420535349442650415353574F5244C8
:10437000204641494C442E2E2E0D0A0041542B4319
:1043800049504D55583D310041542B4349505345F8
:10439000525645523D312C25730000000800002084
:1043A0005B494E464F5D6C6F63616C49703A257393
:1043B0000D0A00005B64656275675D4553503832D5
:1043C000363620696E6974204F4B0D0A00000000DC
:1043D00070B5044600255948008800F4004078B1C3
:1043E000002056490988C1F30E01554A5054114620
:1043F00054A000F011FA2146514800F085FB054613
:10440000284670BD2DE9F04106460D4614460027AA
:1044100000204A49088031464FA000F0B9F93146E2
:104420004FA000F0F9F9C5B1BCB10FE06420FDF771
:10443000D7FB4248008800F4004038B12846FFF717
:10444000C7FF00B106E000203C490880601E80B232
:10445000041EEBD100BF04B901273846BDE8F08146
:104460002DE9F04106460D46144600270020334949
:10447000088031463FA000F08BF9C5B1BCB10FE018
:104480000A20FDF7ADFB2D48008800F4004038B14C
:104490002846FFF79DFF00B106E00020274908806D
:1044A000601E80B2041EEBD100BF04B9012738465C
:1044B000BDE8F08110B500242FA000F0ADF902E0B6
:1044C00034A000F0A9F946223AA13DA0FFF79AFFD7
:1044D0000028F5D102E03DA000F09EF9142245A18C
:1044E00045A0FFF78FFF0028F5D146A000F094F912
:1044F000204610BD10B586B000240A2247A148A06E
:10450000FFF780FF0222002148480068FFF7A8FF5C
:104510001A2247A101A800F08BF9322235A101A887
:10452000FFF770FF04461CB942A000F075F902E0E5
:1045300048A000F071F906B010BD00006000002036
:10454000F00500205B53494D383030412061636BEA
:104550005D3A25730D0A000025730D0A0000000066
:104560005B53494D3830304120636D645D25730DD8
:104570000A000000257300005B64656275675D7367
:10458000696D38303020696E69742073746172749B
:104590000D0A00005B4552524F525D2053494D3881
:1045A00030302043524547204641494C443B2E2E53
:1045B0000D0A00002B435245473A20302C310000B1
:1045C00041542B435245473F000000005B45525287
:1045D0004F525D2053494D383030205345542050C0
:1045E0004455204D444F45204641494C442E2E0D04
:1045F0000A0000004F4B000041542B434D47463DFD
:10460000300000005B64656275675D73696D38300A
:104610003020696E6974204F4B0D0A003E00000087
:1046200041542B434D47533D333500005C0000207F
:10463000256300005B696E666F5D73656E64206D57
:10464000657361676520737563636573732E2E0DE3
:104650000A0000005B4552524F525D73656E642044
:104660006D6573616765206661696C642E2E0D0A45
:104670000000000010B540F225515748FEF790FCAD
:1046800000B35548FEF7CAFBC4B25448008800F492
:104690000040B8B951480088B0F5C87F13DA00214E
:1046A0004F48FEF707FE4D48008818B901214C48D5
:1046B000FEF740FE494801880088401C474A1080A8
:1046C0004848445405E04548008840F400404349C8
:1046D000088010BD10B588B0044601210420FEF703
:1046E0002BF901212020FEF781F9082206213E48FE
:1046F000FDF70FFF082207213B48FDF70AFFC02006
:10470000069002208DF81C008DF81D0000208DF809
:104710001E0001208DF81F0006A93348FDF76EFE2C
:1047200002940020ADF80C00ADF80E00ADF81000BA
:10473000ADF814000C20ADF8120002A92648FEF7CF
:10474000B6FA01212448FEF73AFB012240F2255136
:104750002148FEF7EAFB47208DF8040003208DF87E
:1047600005008DF8060001208DF8070001A8FDF76F
:1047700022FB42F2CF0140F2E730FCF74EFD002071
:104780001649088000211648FEF7D4FD08B010BD78
:104790000FB438B505A800901448009A049900F0A9
:1047A00029F800200090114800F0C0F985B20024DB
:1047B0000DE000BF40210848FEF7DCFB0028F9D0DF
:1047C0000A48015D0448FEF725FB601C84B2AC4238
:1047D000EFDB38BC5DF814FB0014014060000020E2
:1047E000000C0040F005002000080240600400209A
:1047F000704700001CB50C46064B7B446946009090
:10480000204600F06CFA04460020694600F07AFA6F
:1048100020461CBD070500000FB4044910B503AACB
:10482000029800F08BFA10BC5DF814FB34000020F5
:104830000FB41CB5084B06AA7B4469460090059846
:1048400000F04DFA04460020694600F05BFA20466D
:104850001CBC5DF814FB0000C904000070B50446E0
:1048600085690068C10601D5302600E02026C00712
:1048700007D070BDD4E9012130469047206A401C22
:1048800020626D1EF6D570BD70B50446856900784E
:10489000C00707D170BDD4E9012120209047206ACC
:1048A000401C20626D1EF6D570BD70B50C460546E5
:1048B000012A05D02878800600D5EA69002302E0A5
:1048C000012305E05B1C934202D2E05C0028F9D191
:1048D000A869E618C01AA861286A18442862284600
:1048E000FFF7BCFF04E0D5E9012114F8010B904764
:1048F000B442F8D32846FFF7C7FF70BD2DE9F04159
:104900000646002410687529314616A510D000F01F
:1049100062F9002802DA404213A507E031688A07ED
:1049200001D512A502E0490704D511A5012401E033
:1049300000F05AF900210A2206F1240709E0B0FB31
:10494000F2FCB0FBF2F302FB1C0030307854184646
:10495000491C0028F3D123462A463046BDE8F041E1
:1049600000F04BB9000000002D0000002B000000FB
:10497000200000002DE9F05F894604464FF0000A50
:10498000DFF874B1FB44C0F820A02046E1688847F6
:10499000002874D0252806D0D4E901219047206A48
:1049A000401C2062F1E700265F462046E168884708
:1049B0002028054607DB312D05D2781910F8200C88
:1049C00008B10643F1E7B00701D526F00406C4F8A4
:1049D0001CA00027C4F818A02A2D09D0284602F0F0
:1049E000BBF938B304EB8708303DC8F8185019E01C
:1049F00059F8041B204604EB87029161E16888475F
:104A0000012F054618D1E069002820DA26F020069B
:104A10001DE0D8F8180000EB800005EB40003038AE
:104A2000C8F818002046E1688847054602F094F966
:104A30000028EED1012F0AD02E2D08D12046E168A2
:104A400088477F1C0546022F46F02006C4DBA0697C
:104A5000002803DA404246F00106A061F00701D0C9
:104A600026F010066C2D0BD0682D09D04C2D39D0B6
:104A70006A2D35D0742D35D07A2D33D016E038E03C
:104A8000E1682F4620468847B842054609D16C2F79
:104A900026D04FF48060E1680643204688470546EB
:104AA00004E06C2F1AD04FF4807006430DB3A5F1CB
:104AB0004100192802D8203546F400664A462946A6
:104AC000204626604E46FBF799FB80B101280BD0AB
:104AD000F61D26F0070000F1080956E74020E4E73C
:104AE0008020D8E70020D6E706F104094DE72846E4
:104AF00052E7206ABDE8F09F363C0000014A00F012
:104B00004DBA00006400002030B505460B462A4629
:104B100013F8014B12F8010B08B1A042F8D01CB1F8
:104B2000002802D06D1CF1E7284630BD10B5431CAB
:104B300002E010F8011B71B18107FAD14FF0013288
:104B400002C88C1A8C4314EAC211F9D0C01A0A06A2
:104B500003D0C01E10BDC01A10BD0A0401D0801EB3
:104B600010BD0902FCD0401E10BD4FF0000200B580
:104B7000134694469646203922BFA0E80C50A0E880
:104B80000C50B1F12001BFF4F7AF090728BFA0E82E
:104B90000C5048BF0CC05DF804EB890028BF40F8FA
:104BA000042B08BF704748BF20F8022B11F0804F3C
:104BB00018BF00F8012B7047704770477047704767
:104BC00010B500F00DFA006810BD10B5044600F0F5
:104BD00007FA046010BD09684A0501D540B2704764
:104BE000C905FCD500B2704709684A0501D5C0B2B5
:104BF0007047C905FCD580B270472DE9F0470D46D6
:104C000099469246044600F124080168880604D5B6
:104C1000E06921F01001216000E00120A84201DDDF
:104C2000471B00E00027A1697A1902EB0900081A66
:104C3000A0612078C00602D42046FFF70FFE0026B0
:104C400008E0D4E901211AF806009047206A401CC8
:104C5000761C20624E45F4DB2078C0060AD520463B
:104C6000FFF7FCFD06E0D4E9012130209047206ADF
:104C7000401C2062381EA7F10107F4DC07E0D4E9EC
:104C8000012118F805009047206A401C2062281E68
:104C9000A5F10105F3DC2046FFF7F6FD20780006BC
:104CA00002D50220BDE8F0870120FBE71168026809
:104CB000006A530501D508700AE0D30501D50880C4
:104CC00006E0130603D5C217C1E9000200E0086040
:104CD0000120704701694A1C02610878704700B5DD
:104CE0008FB0CDE901310021059105497944CDE925
:104CF000031011466846FFF73DFE0FB000BD0000EF
:104D0000E5FFFFFF0A6802F8010B0A60704710B563
:104D1000436913B1AFF3008001E0FFF7C6FD012046
:104D200010BD127800F124010A7000224A7001229D
:104D3000EDE711684FF0FF32E9E70000074B70B56F
:104D40000D467B44FFF7CBFF0446284600F0B6FB38
:104D500010B14FF0FF3070BD204670BDE1CEFFFFB7
:104D60002DE9FF5F15468A460446DFF8AC80F8441B
:104D70000027D8E900103E46CDE9001010E03AF8CF
:104D800016106A4602A800F09DFB411C07D021784E
:104D9000890603D5E269391891420DD80744761C7B
:104DA0002078800602D5E069B84205DDAE42E6DB38
:104DB0003AF816000028E2D1A069C01BA061204685
:104DC000FFF74CFDD8E90010CDE90010002017E0F6
:104DD0003AF818106A4602A800F074FBB0F1FF3FE1
:104DE00081460BD000250DF1080B05E0D4E9012127
:104DF0001BF8050090476D1C4D45F7D308F10100E5
:104E0000B0428046E4DB206A384420622046FFF747
:104E10003BFDBDE8FF9F0000E63800002DE9F041B2
:104E20008046D21D22F007020025D2E90002F529B2
:104E300015A614D0011E72F1000106DA0023D0EB92
:104E4000030063EB020211A608E0D8F800108B07FC
:104E500001D50FA602E0490701D50EA6012511468E
:104E6000002408F1240704E000F0BEF830323A557F
:104E7000641C50EA0102F7D12B46324621464046D7
:104E8000BDE8F041FFF7B9BE000000002D000000B2
:104E90002B0000002000000030B4002100F12404A9
:104EA00008E002F00705D208303542EA4372DB0819
:104EB0006554491C52EA0305F3D10468002310A28B
:104EC000250707D5A40600D421B1C46901230DA28A
:104ED000641EC46130BCFFF790BE10B50446214685
:104EE0001068FFF781FE02462046BDE8104000230F
:104EF000D2E7D21D22F00701D1E90023CCE7000060
:104F00000000000030000000F0B40D4601880905E3
:104F100002D5214C7C4402E01F4C7C440E3400211D
:104F200000F1240608E002F00F071209E75D42EAEB
:104F300003721B097754491C52EA0307F3D1027824
:104F40000023120704D5702D06D009B102231134B5
:104F50002246F0BCFFF751BE01231034F8E770B5CC
:104F600004460D4621461068FFF73EFE02462946DC
:104F70002046BDE870400023C6E7D21D22F007039B
:104F8000D3E90023C0E70368126843F020030360FD
:104F90000823C3610023B7E7483700002DE9F0413B
:104FA00015460E46040002D12C6804B90BA4204615
:104FB00000F0B8FA0444207870B1274631463846EC
:104FC00000F0A0FA0444207810B1002004F8010B8E
:104FD00038462C60BDE8F0810027F9E700000000AA
:104FE000004870478007002030B5B0F10A024FEA50
:104FF000900E71F100034EEA817EB0EB0E0061EB82
:1050000091014FEA101E4EEA017E10EB0E0041EBBB
:1050100011114FEA102E4EEA016E10EB0E0041EB1B
:1050200011214FEA104E4EEA014E10EB0E0041EBFB
:105030001141401841F100014FEAD00040EA4170AF
:105040004FEAD10110EB80054FEA810444EA9074E5
:1050500044EB01046D1944EB0404521BA3414FF0CF
:10506000000348BF0A3200D530BD401C41F10001A9
:1050700030BD70472DE9FF4F0C461E464FF0FF37FD
:105080008BB0D2E90001DDF860800A908A46C1F356
:105090000A5505B93D46002108464FF00000BAF117
:1050A000000F00F4400005DA00EB80004FF44001EF
:1050B00001EA50004FEA9059B9F1010F00DDB946FD
:1050C0000A9850EA4A000ED044F61050A5F2FF3577
:1050D00045432F14B8F1000F1ED07542291E1EDD66
:1050E000C9F100021CE0B8F1010F4FF0000001D03F
:1050F000302103E0F24305E02154401CB042FBDBC9
:1051000030460022002121540B99C1F80880C1E9E2
:1051100000200FB0BDE8F08FBD1B6D1CDEE74A46D6
:1051200000DA694206A800F081FA06AB93E80700AE
:1051300003AB83E8070050460A9900F033FB8DE883
:105140000700A0F500501F3800900398002D0ADDDD
:1051500042F21F014A460844002303A9039068460F
:1051600000F09CFD09E0A0F500504A461F380023DE
:1051700003A90390684600F0A6FD8DE8070000042F
:10518000000C03D04FF0FF30410800E01046B8F1AA
:10519000000F03D00022009215461EE0751E05D4B4
:1051A000FFF722FF303262556D1EF9D5B34601225A
:1051B000084302D000227F1C04E02078302801D16F
:1051C00000227F1E002A099784D01DE0112D07DAE6
:1051D000FFF70AFF303262556D1C50EA0102F5D12B
:1051E000084302D00098C8B10EE00021681E05E017
:1051F000235C625C63542254401E491C8142F7DBED
:10520000AB46A81B401E0990002004F80B000B9829
:10521000099AC0F80880C0E9002B7AE711264FF000
:10522000000857E72DE9F04F88460446D21D22F0CA
:10523000070191B0D1E90001CDE90A0100F07AFE41
:1052400002460B98C00F01D02D2007E0206881078F
:1052500001D52B2002E0202101EAC000032A099099
:1052600001D0072A05DB03464146204600F09EF99F
:105270000BE12078800601D5E06900E00620B8F156
:10528000650F814606D0B8F1660F18D0B8F1670FE8
:1052900070D131E00020B9F1110F009001DB112332
:1052A00001E009F101030AAA01A90CA8FFF7E2FE37
:1052B000DDE90C70002609F10105834647E0012075
:1052C0004B4600904FF000470AAA01A90CA8FFF72F
:1052D000D1FEDDE90DB00C995D46002610B909F14B
:1052E00001000D18B9EB050003D4C0F1FF3609F138
:1052F0000105A5EB09002BE0B9F1010F01DA4FF030
:1053000001090020B9F1110F0090484601DD112379
:1053100000E003460AAA01A90CA8FFF7ABFEDDE9ED
:105320000C704D4600268346207800070AD4AB4512
:1053300000DA5D4601A8012D04DD411911F8011CB8
:10534000302907D04F4502DA17F1040F04DA0120A3
:1053500082460FE06D1EEEE7002F02DCED1B3E449F
:1053600003E0781CA84200DD7D1CB81B00F1010A97
:105370004FF000472078000703D4AA4501DB4FF027
:10538000FF3A0021B7F1004F0DF143088DF84310AB
:1053900024D002202B23002F01DA7F422D230A2163
:1053A000021EA0F1010000DC5FB197FBF1FC97FB4E
:1053B000F1F201FB1C7C17460CF1300C08F801CD12
:1053C000EEE7A8F1010003702188090501D5452108
:1053D00000E06521A0F1010800F8011C09980FA95F
:1053E000A1EB0807FF1D00B10120411901EBEA7094
:1053F000A1693844081A401EA0612078C00602D472
:105400002046FFF72BFA099828B1D4E901219047EB
:10541000206A401C20622078C00622D52046FFF773
:105420001DFA1EE0002E04DBB34502DD01A8805DFD
:1054300000E03020D4E901219047206A401C20621E
:10544000761CAAF101005FEA000A0AD100F0AAF86E
:10545000C0680168405CD4E901219047206A401C83
:105460002062281EA5F10105DCDC07E0D4E901215A
:1054700018F8010B9047206A401C2062381EA7F1E3
:105480000107F3DC2046FFF7FFF9032011B041E6E6
:1054900010B5436913B1AFF3008001E0FFF760FC82
:1054A000012010BD128800F1240182840022C284F0
:1054B0000122EDE711684FF0FF32E9E7007B00F0D1
:1054C0008000704770B516460C46054600F062F83D
:1054D000036893F80101012806D0FF2C0FD8185D4E
:1054E00068B101202C7070BDD3F807013246214607
:1054F00003F2071303442846BDE8704018474FF0F5
:10550000FF3070BD30B503461D781DB10A4603E07B
:10551000AC4201D1181A30BD12F8014B002CF7D162
:105520005B1CF1E730B503461D783DB10A4612F821
:10553000014B1CB1AC42FAD15B1CF5E7181A30BD27
:1055400000487047800700207546FFF7F9FFAE4618
:1055500005006946534620F00700854618B020B57F
:10556000FCF712FCBDE820404FF000064FF00007AA
:105570004FF000084FF0000B21F00701AC46ACE8FB
:10558000C009ACE8C009ACE8C009ACE8C0098D4668
:105590007047000010B500F005F8001D10BD00BFF9
:1055A0007918000000487047A00700202DE9F0415D
:1055B0001F46044603260168072A01F4006004DB45
:1055C00008B116A505E016A503E008B115A500E091
:1055D00015A521F010002060A069C01EA0610FB1C8
:1055E000401EA0612046FFF739F94FB1D4E90121EF
:1055F00038469047206A401C2062C01C206206E0AA
:10560000206AFAE7D4E9012115F8010B9047761ECC
:10561000F8D22046FFF738F9BDE8F0814E414E0040
:105620006E616E00494E4600696E66002DE9F047D6
:10563000814616468AB0354878440DC88DE80D007D
:1056400032487844801C03AC0DC884E80D0041F654
:105650009B300844372190FBF1F290FBF1F5A5F166
:10566000800501FB12041B3C02D56442012000E0CE
:105670000020DFF898A080460027FA44AAF1BE0A6D
:105680000EE0E0070AD03246684607EB47010123E7
:105690000AEB810100F017FB8DE8070064107F1C06
:1056A000002CEED1194F7F44AE3F19E0E80715D02A
:1056B00007EB04100DF1180A90E80E008AE80E00BE
:1056C000C068F04201D1981908903246012306A91A
:1056D00003A800F0F8FA03AB83E807006D10641C20
:1056E000002DE3D14FF0010332466946B8F1000FB7
:1056F00003A802D000F0D2FA01E000F0E4FAC9E910
:105700000001C9F808200AB0BDE8F087D0300000D9
:1057100010B50446AFF300802046BDE81040FAF70C
:10572000D2BD00004FF0013C50F8042B51F8043B6F
:105730009A4221D1A2EB0C03934313EACC1317D165
:1057400050F8042B51F8043B9A4215D1A2EB0C03FC
:10575000934313EACC130BD150F8042B51F8043BBC
:105760009A4209D1A2EB0C03934313EACC13DBD08A
:105770004FF00000704700BFD01A01BAB1FA81F1B2
:1057800001F0180122FA01F0CB40C1F12001DBB297
:10579000C0B2C01A2CFA01F3D11A914311EAC31115
:1057A000E6D170475FEA400C08BF91F0000F4FEA66
:1057B0008C234FEAC12243EA51514FEA1C5018BFD3
:1057C00000F5F0404FEA300018BF41F000415FEAB9
:1057D0006C5C00F02980BCF1FF3F08BF40F08040C6
:1057E0007047130C06BF12044FF0100C4FF0000C62
:1057F000130E04BF12020CF1080C130F04BF1201A8
:105800000CF1040C930F04BF92000CF1020CD30FA7
:1058100004BF52000CF1010C11464FF00002A0F140
:105820001F00A0EB0C00704711F0004F08BF70473D
:1058300031F000413FF4D5AF0B0C06BF09044FF027
:10584000100C4FF0000C0B0E04BF09020CF1080CF9
:105850000B0F04BF09010CF1040C8B0F04BF89006E
:105860000CF1020CCB0F04BF49000CF1010CCCF180
:105870002003A0EB0C0022FA03F302FA0CF241EA37
:10588000030100F10100704720F07F4C80EA030023
:1058900023F07F47ACEB070303F57C5300F0004097
:1058A00003F1FF032DE980494FEA154B09B44FEA94
:1058B000144325EA0B4E24EA03480FF2042606EBB4
:1058C000132749083E785FEA320203FB0667C7F5F3
:1058D000000707FB06F64FEA54374FEAD64606F1B3
:1058E000020607FB066CCCF1005C4FEA1C472CEA71
:1058F000074C07FB06F40CFB06F504EB15464FEAD4
:10590000961634BF00204FF000404FEAD13706FB17
:1059100007FC4FEA1C4C0CFB0BF7D21B03FB0CF7EC
:1059200061EB07010CFB0EF7B0EB074072EB17427F
:105930000CFB08F734BFA2EB0742B2EB074261EB66
:1059400017414FEA0C444FEA910706FB07FC4FEA68
:105950001C4C0CFB0BF7B0EBC74072EB573203FB50
:105960000CF734BFA2EBC742B2EBC74261EB573131
:105970000CFB0EF7B0EBC70072EB57720CFB08F78D
:1059800034BFA2EBC702B2EBC70261EB5771039FB2
:105990004FEA816141EA921104EBCC044FEAD1371E
:1059A0004FEA826206FB07FC42EA90124FEA8060EF
:1059B0004FEA1C4C0CFB0BF7D21B03FB0CF761EB03
:1059C00007010CFB0EF7B0EB074072EB17420CFB24
:1059D00008F734BFA2EB0742B2EB074261EB174175
:1059E0004FEA8C554FEA910704EB9C2406FB07FC19
:1059F0004FEA1C4C0CFB0BF7B0EBC74072EB573275
:105A000003FB0CF734BFA2EBC742B2EBC74261EB1A
:105A100057310CFB0EF7B0EBC70072EB57720CFB63
:105A200008F734BFA2EBC702B2EBC70261EB5771B4
:105A300015EB4C254FEA816141EA92114FEA8262EF
:105A40004FEAD13742EA901206FB07FC44F100040A
:105A50004FEA80604FEA1C4C0CFB0BF7D21B03FB98
:105A60000CF761EB07010CFB0EF7B0EB074072EB94
:105A700017420CFB08F734BFA2EB0742B2EB074218
:105A800061EB174115EB1C154FEA813141EA924158
:105A90004FEA823242EA90424FEA80304FEA0C7677
:105AA00044F1000448EA03434EEA0B484FF0000E6D
:105AB000B2EB080C71EB030724BF624639464EEB8C
:105AC0000E0E4FF0000B0018524149414BEB0B0BEF
:105AD000B2EB080C71EB03077BF1000B24BF6246AD
