:020000040800F2
:10000000880A0020FD0A0008290300082B030008C5
:100010002F03000833030008370300080000000026
:100020000000000000000000000000003B0300088A
:100030003D030008000000003F03000841030008E2
:10004000170B0008170B0008170B0008170B000808
:10005000170B0008170B000895050008170B000880
:10006000BB050008170B0008170B0008170B00084A
:10007000170B0008170B0008170B0008170B0008D8
:10008000170B0008170B0008170B0008170B0008C8
:10009000170B0008170B0008170B0008170B0008B8
:1000A000170B0008170B0008170B0008170B0008A8
:1000B000170B0008170B0008170B0008170B000898
:1000C000170B0008170B0008170B0008170B000888
:1000D000170B0008710A0008170B0008A506000896
:1000E000170B0008170B0008170B0008170B000868
:1000F000170B0008170B0008170B0008170B000858
:10010000170B0008170B0008170B0008170B000847
:10011000170B0008170B0008170B00082D08000824
:10012000170B0008170B0008170B0008170B000827
:10013000170B0008170B0008170B0008170B000817
:10014000170B0008170B0008170B0008170B000807
:10015000170B0008170B0008170B0008170B0008F7
:10016000170B0008170B0008170B0008170B0008E7
:10017000170B0008170B0008170B0008170B0008D7
:10018000170B0008170B000800F002F800F092F8B7
:100190000AA090E8000C82448344AAF10107DA45E2
:1001A00001D100F087F8AFF2090EBAE80F0013F0A2
:1001B000010F18BFFB1A43F001031847E442000087
:1001C00004430000103A24BF78C878C1FAD8520717
:1001D00024BF30C830C144BF04680C6070470000C1
:1001E0000023002400250026103A28BF78C1FBD840
:1001F000520728BF30C148BF0B6070476E2902F01C
:10020000CA87702902F03186662904F0CC806529FE
:1002100004F0C980672904F0C6806129AFF300802B
:1002200003681B0A28BF41F08001692902F0A285FA
:10023000642902F09F85752902F09C856F2903F0DF
:10024000C280782902F0FD85E92903F05D80E42968
:1002500003F05A80F52903F05780EF2903F0BF809F
:10026000F82902F0FC850368DB0928BF41F0800112
:10027000632902F0CC87732902F0D187E32903F0C8
:100280001783F32903F01C83002070471FB504F087
:1002900085F803F06FFB04000020002104F068F8EB
:1002A000401C60600020002104F04CF8E0601FBD9D
:1002B00010B510BD03F030FB1146FFF7E7FF00F06B
:1002C00009F803F00DFC03B4FFF7F2FF03BC00F0E4
:1002D0006FFB000000BF00BF00BF00BF4FF4A06075
:1002E00000F02CFCA82000F0E1FA4FF4E13000F01F
:1002F0006DFB4FF4E13000F005FA00F02BF900201F
:10030000074908600749C1F8A80202F090FB05E020
:100310000A2000F02DFB012002F06AFAF8E7000045
:10032000A482424200804242704700BFFEE700BF05
:10033000FEE700BFFEE700BFFEE77047704770476B
:10034000704700000CB500200190009076480068CE
:1003500040F480307449086000BF7348006800F4BE
:10036000003000900198401C0190009818B9019845
:10037000B0F5A04FF1D16C48006800F4003010B126
:100380000120009001E0002000900098012846D153
:1003900065484030006840F0805063494031086053
:1003A0006248006840F44040604908605E48083098
:1003B00000685D49083108600846006840F4004064
:1003C00008600846006840F4A05008605848091FBB
:1003D0000860081F006840F08070091F086000BFB7
:1003E0005148006800F000700028F9D040F2057014
:1003F000504908604C480830006820F003004A4922
:10040000083108600846006840F00200086000BF3C
:1004100045480830006800F00C000828F8D10CBDF1
:1004200010B54548006840F47000434908603E48F4
:10043000006840F001003C49086000203A4908315A
:100440000860394800683D490840374908603C4821
:10045000091D0860081F006820F48020091F08603B
:10046000002031490C310860FFF76CFF4FF000604D
:1004700031498039086010BD70B500200022022388
:1004800000240221284D08352D6805F00C0020B10C
:10049000042806D0082834D107E02A4D2A4E3560BA
:1004A00033E02A4D284E35602FE01F4D2D1D2D685D
:1004B000C5F380541C4D2D1D2D6805F03F0154B12E
:1004C000224DB5FBF1F5184E361D3668C6F3881679
:1004D00005FB06F209E01B4DB5FBF1F5124E361D8A
:1004E0003668C6F3881605FB06F20F4D2D1D2D68E4
:1004F000C5F301456D1C6B00B2FBF3F5124E356080
:1005000003E0104D104E356000BF00BF064D0835AA
:100510002D68C5F303150E4E705D0B4D2D68C5405B
:10052000094E356070BD0000003802400070004088
:1005300008544007003C024088ED00E0FFFFF6FE53
:10054000103000240024F4000000002000127A0083
:10055000040000201CB50121202000F083FE4FF490
:10056000C060009001208DF8040000208DF8060086
:1005700003208DF8050001208DF807006946044826
:1005800000F0D2FB4FF4C061014800F049FC1CBDF3
:100590000014024010B50A2000F0EAF9012002F030
:1005A000FAF832A002F09AFB3848006808B9012036
:1005B00000E000203549086010BD10B50A2000F0A9
:1005C000D7F933A002F08AFB042002F0E4F810BD52
:1005D0000EB50121880300F09FFE0021084601F0BE
:1005E000D0F90120009000208DF8040008208DF83B
:1005F000050001208DF80600684602F05BF8062031
:100600008DF8080000208DF8090002208DF80A00FE
:1006100001208DF80B0002A800F095FA0EBD0EB572
:100620000121880300F078FE0221042001F0A9F9DD
:100630000420009000208DF804000C208DF80500A7
:1006400001208DF80600684602F034F808208DF885
:10065000080003208DF8090002208DF80A0001200F
:100660008DF80B0002A800F06EFA0EBD0D0ABAEC70
:10067000CDE2C8C8CACDB5E7BFAAB9D8BCE0B2E2DE
:10068000B5BDD3D0C8CB0D0A00000000A8824242FD
:100690000D0ABCE0B2E2B5BDD3D0D3EAB5CE0D0AA7
:1006A0000000000010B540F225515A4801F00EF943
:1006B00000B3584801F048F8C4B25748008800F425
:1006C0000040B8B954480088B0F5C87F13DA00215B
:1006D000524801F085FA5048008818B901214F4866
:1006E00001F0BEFA4C4801880088401C4A4A10803C
:1006F0004B48445405E04848008840F400404649CF
:10070000088010BD10B588B004460121022000F019
:10071000A9FD0121880400F0EEFD3E4800F0F6FE40
:1007200007220B213F4800F08AFB07220A213D489F
:1007300000F085FB4FF44060059002208DF8180012
:100740008DF8190000208DF81A0001208DF81B008B
:1007500005A9344800F0E8FA01940020ADF808003B
:10076000ADF80A00ADF80C00ADF810000C20ADF8A3
:100770000E0001A9274800F030FF0121254800F0B4
:10078000B4FF012240F22551224801F064F82720ED
:100790008DF81C0002208DF81D0003208DF81E002E
:1007A00001208DF81F0007A800F0CDF942F2CF011B
:1007B00040F2E73000F04FF8002017490880002190
:1007C000164801F04DFA08B010BD0FB438B505A8B1
:1007D00000901548009A049902F06EFA00200090EB
:1007E000114802F023FC85B200240DE000BF402137
:1007F000084801F055F80028F9D00B48015D05487C
:1008000000F09EFF601C84B2AC42EFDB38BC5DF8A8
:1008100014FB0000004800401400002000140040B9
:10082000D0010020000402404000002010B501214A
:100830001C4801F044FE68B11B48008840F40040A9
:10084000194908800121174801F04AFE0021154886
:1008500001F006FA10BD7FB505460C4601212020A7
:1008600000F049FD0195ADF800400020ADF808000A
:10087000ADF8020069460B4801F069F90122114602
:10088000084801F005FE37208DF80C0000208DF897
:100890000D0001208DF80E008DF80F0003A800F068
:1008A00052F97FBD001400401400002010B504462A
:1008B0006FF0040000F094F9E11704EB5171C1F3FB
:1008C000C701394A11701046007800EB4001C1EBB6
:1008D000C0104FF6FF7101EAC0003449088010BD16
:1008E0000146314A12784A434FF0E0235A61002210
:1008F0009A611A46126942F001021A6100BF4FF074
:10090000E022106900F001021AB100F48032002ADE
:10091000F5D04FF0E022126922F001024FF0E023FF
:100920001A6100229A6170470146204A12884A43A0
:100930004FF0E0235A6100229A611A46126942F090
:1009400001021A6100BF4FF0E022106900F00102BD
:100950001AB100F48032002AF5D04FF0E02212697B
:1009600022F001024FF0E0231A6100229A617047E1
:1009700070B504464FF4077094FBF0F0C6B24FF424
:10098000077094FBF0F100FB114085B205E04FF4D5
:100990000770FFF7C9FF701EC6B2002EF7D115B160
:1009A0002846FFF7C1FF70BD160000201800002088
:1009B000014600BF704700BF4C4A128802F0400257
:1009C000002AF9D0C2B2494B9A80704710B588B05E
:1009D00004460121084600F045FC0121102000F0EA
:1009E0009BFC07220921424800F029FA07220A212C
:1009F0003F4800F024FA4FF4C060069002208DF8C2
:100A00001C008DF81D0000208DF81E0001208DF8BF
:100A10001F0006A9364800F087F902940020ADF8BF
:100A20000C00ADF80E00ADF81000ADF814000C206D
:100A3000ADF8120002A92D4800F0CFFD01212B488E
:100A400000F053FE012240F22551284800F003FF38
:100A500025208DF8040003208DF805008DF8060090
:100A600001208DF8070001A800F06DF808B010BD56
:100A700010B540F225511D4800F028FF10B31B4867
:100A800000F062FEC4B21B48008800F40040C8B900
:100A90001848008800F4804060B10A2C03D0002080
:100AA0001449088020E01348008840F400401149B0
:100AB000088019E00D2C06D10E48008840F48040D3
:100AC0000C49088010E00B480088C0F30D000A496B
:100AD0000C5408480088401C0649088008460088D5
:100AE000C72801DD0020088010BD00000010014073
:100AF00000000240200000206003002009488047D9
:100B000009480047FEE7FEE7FEE7FEE7FEE7FEE7EF
:100B1000FEE7FEE7FEE7FEE704480549054A064B07
:100B200070470000210400088901000888040020A3
:100B3000880A0020880600208806002032490143E8
:100B4000324A1160704770B5002100230F22C4782B
:100B50001CB32E4C246804F4E064C4F5E064C4F3D0
:100B60000721C1F10404E3B20A4144789C40E1B298
:100B70008478144021430C07210E254C05786155DB
:100B8000047804F01F050124AC4005786D11AD0018
:100B900005F1E025C5F8004109E0047804F01F05DF
:100BA0000124AC401B4D0678761145F8264070BDF7
:100BB000194A0A400243154B1B1F1A60704739B18E
:100BC000124A121D12680243104B1B1D1A6006E0E8
:100BD0000E4A121D126882430C4B1B1D1A6070478F
:100BE000042808D14FF0E021096941F004014FF0D9
:100BF000E022116107E04FF0E021096921F00401D2
:100C00004FF0E022116170470000FA050CED00E0A2
:100C100000E400E080E100E080FFFF1F10B5044623
:100C20009848844208D10121084600F086FB002143
:100C3000012000F082FB76E09348844208D1012134
:100C4000022000F07AFB0021022000F076FB6AE02F
:100C50008E48844208D10121042000F06EFB00215F
:100C6000042000F06AFB5EE08948844208D101213B
:100C7000082000F062FB0021082000F05EFB52E03B
:100C80008448844208D10121102000F056FB002145
:100C9000102000F052FB46E07F48844208D1012139
:100CA000202000F04AFB0021202000F046FB3AE023
:100CB0007A48844208D10121402000F03EFB002107
:100CC000402000F03AFB2EE07548844208D1012113
:100CD000802000F032FB0021802000F02EFB22E07B
:100CE0007048844208D10121801500F026FB0021C4
:100CF000A01500F022FB16E06B48844208D10121C8
:100D0000401500F01AFB0021601500F016FB0AE008
:100D10006648844207D10121001500F00EFB002136
:100D2000201500F00AFB10BDF0B50A460021002393
:100D3000002400BF3DE0012505FA01F3156805EA2E
:100D400003049C4234D105684F000326BE40B543DE
:100D5000056015794E00B540066835430560157984
:100D6000012D02D01579022D16D185684F0003267A
:100D7000BE40B543856055794E00B5408668354321
:100D80008560456801268E40B54345604568967983
:100D90008E40B6B235434560C5684F000326BE405D
:100DA000B543C560D5794E00B540C6683543C560CA
:100DB000491C1029BFD3F0BD4FF6FF71016000211F
:100DC000017141718171C171704708B54FF4803272
:100DD0000092009A0A430092009AC261C161009A8F
:100DE000C261C2690092C269009208BD0246002039
:100DF00013690B400BB1012000E000207047014651
:100E0000086980B270470246002053690B400BB15D
:100E1000012000E0002070470146486980B2704719
:100E200001837047418370470AB1018300E0418329
:100E300070474161704742694A4042617047F0B56E
:100E4000002300244D07ED0E02FA05F3CE1000F149
:100E5000200555F826504E07F70E0F26BE40B54325
:100E6000CF1000F1200646F82750CE1000F12005E3
:100E700055F8265045EA0304CE1000F1200545F848
:100E80002640F0BD0000024000040240000802407D
:100E9000000C024000100240001402400018024002
:100EA000001C0240002002400024024000280240B2
:100EB000F948006840F00100F74908600020F64951
:100EC00008310860F4480068F4490840F2490860B5
:100ED000F348091D0860F348EF4984310860F04881
:100EE0001038091D0860EC48006820F48020EA49A9
:100EF00008600020E8490C310860E7498C3108603F
:100F000070470021E44A921C117011460870704726
:100F100010B501460022002300204A11012A02D107
:100F2000DD4C236808E0022A03D1DB4C70342368CF
:100F300002E0D94C7434236801F01F02012494406C
:100F40001C400CB1012000E0002010BD38B500208D
:100F500000900024002500BF3120FFF7D9FF05468F
:100F60000098401C00900098B0F5A04F01D0002DD3
:100F7000F2D03120FFF7CCFF08B1012400E00024BB
:100F8000204638BD01460020C34A106820F0F80012
:100F900040EAC10010607047C349086070470021F3
:100FA000BD4A703211701170012802D004280AD194
:100FB00004E00121B84A7032117005E00521B64AFB
:100FC0007032117000E000BF00BF7047B749086081
:100FD000704770B5049C41EA82150126C6EB5306A2
:100FE00045EA0645054345EA0465AB4E361D3560C6
:100FF00070BDAD4908667047820142EA0172A64B96
:1010000084331A607047A8498866704710B5830119
:1010100043EA016343EA02739F4C8834236010BDA6
:10102000A14908677047A049C8647047024600207C
:10103000994B0833186820F0EC6042EA010318432A
:10104000954B08331860704702460020924B0833D6
:10105000186820F0784042EA010318438E4B0833A9
:1010600018607047014600208B4A0832106820F053
:10107000030008431060704787480830006800F09C
:101080000C00704701460020834A0832106820F0A7
:10109000F000084310607047014600207E4A083285
:1010A000106820F4E05008431060704701460020AB
:1010B000794A0832106820F4604040EAC1001060AC
:1010C0007047F0B5002100220024022500260223EB
:1010D000714F08373F6807F00C0121B1042905D092
:1010E000082937D105E0724F076036E0714F07607D
:1010F00033E0694F3F1D3F68C7F38056664F3F1D81
:101100003F6807F03F036EB16A4FB7FBF3F7DFF8B4
:1011100088C10CF1040CDCF800C0CCF3881C07FB80
:101120000CF40CE0624FB7FBF3F7DFF86CC10CF185
:10113000040CDCF800C0CCF3881C07FB0CF4564F01
:101140003F1D3F68C7F301477F1C7D00B4FBF5F7E7
:10115000076002E0564F076000BF00BF4E4F0837E0
:101160003F6807F0F0010909534F7A5C0768D740E0
:101170004760494F08373F6807F4E051890A4E4FEE
:101180007A5C4768D7408760434F08373F6807F469
:101190006041490B484F7A5C4768D740C760F0BD53
:1011A000002100F44072B2F5407F0AD13A4A083279
:1011B000116821F4F811414A02401143364A0832BD
:1011C0001160354A70321268C0F30B031A43324B78
:1011D00070331A60704735494439086070473349A5
:1011E0004039086070473649086070470146002062
:1011F000294A8C32106820F01F004A1E1043264AEC
:101200008C321060704701460020234A8C321068EF
:1012100020F4F8504A1E40EA02201F4A8C32106027
:101220007047014600201C4A8C32106820F44010A0
:1012300008431060704701460020174A8C3210683E
:1012400020F4400008431060704701460020124A15
:101250008C32106820F44030084310607047194900
:101260000860704739B10C4A3032126802430A4BA9
:1012700030331A6006E0084A303212688243064B67
:1012800030331A607047F9B1034A343212680243AE
:10129000014B34331A601CE000380240FFFFF6EACD
:1012A000103000240030002000004742800E4742EA
:1012B0000024F40000127A0022000020FFFCFF0F3F
:1012C0005C014742E01147428F4A126882438E4BCD
:1012D0001A60704739B18C4A121D126802438A4B5A
:1012E0001B1D1A6006E0884A121D12688243864B55
:1012F0001B1D1A60704739B1834A0C3212680243D1
:10130000814B0C331A6006E07F4A0C32126882432C
:101310007D4B0C331A60704739B17B4A103212682A
:101320000243794B10331A6006E0774A1032126894
:101330008243754B10331A60704739B1724A243AB0
:1013400012680243704B243B1A6006E06E4A243A4E
:10135000126882436C4B243B1A60704739B16A4A69
:10136000203A12680243684B203B1A6006E0664A46
:10137000203A12688243644B203B1A60704739B1AF
:10138000614A1C3A126802435F4B1C3B1A6006E03C
:101390005D4A1C3A126882435B4B1C3B1A607047E3
:1013A00039B1594A143A12680243574B143B1A6038
:1013B00006E0554A143A12688243534B143B1A60B4
:1013C000704739B1504A103A126802434E4B103BF5
:1013D0001A6006E04C4A103A126882434A4B103BAE
:1013E0001A60704739B1484A1C3212680243464BB2
:1013F0001C331A6006E0444A1C3212688243424B96
:101400001C331A60704739B13F4A203212680243D8
:101410003D4B20331A6006E03B4A2032126882437B
:10142000394B20331A60704739B1374A2432126879
:101430000243354B24331A6006E0334A24321268E3
:101440008243314B24331A60704739B12E4A2C3213
:10145000126802432C4B2C331A6006E02A4A2C32C5
:1014600012688243284B2C331A60704739B1264AE0
:10147000303212680243244B30331A6006E0224AAD
:10148000303212688243204B30331A607047012893
:1014900008D11D493C31096841F008011A4A3C3223
:1014A000116007E018493C31096821F00801164A2B
:1014B0003C321160704739B1134A273A127802431F
:1014C000114B273B1A7006E00F4A273A12788243E5
:1014D0000D4B273B1A7070470B484030006840F0B6
:1014E0008070094940310860704701460020064A73
:1014F000283A12680A400AB1012000E00020704733
:1015000001492639087070473438024010B5044646
:10151000FA48844208D101211020FFF752FF002130
:101520001020FFF74EFF57E0F548844209D1012112
:101530004804FFF735FF00214FF40030FFF730FF7C
:101540004AE0F048844209D101218804FFF728FFCE
:1015500000214FF48020FFF723FF3DE0EA4884425A
:1015600009D10121C804FFF71BFF00214FF400201F
:10157000FFF716FF30E0E548844209D10121080554
:10158000FFF70EFF00214FF48010FFF709FF23E063
:10159000DF48844208D101212020FFF712FF0021FB
:1015A0002020FFF70EFF17E0DA48844209D101211D
:1015B0008807FFF7F5FE00214FF08040FFF7F0FEAF
:1015C0000AE0D548844207D101214005FFF7E8FE33
:1015D00000216005FFF7E4FE10BD2DE9FF47054639
:1015E0000E460024A14600BFA046B08900B100BF4E
:1015F0002C8A24F44054F08804432C82AC8941F2B4
:101600000C608443B08831890843718908430443DE
:10161000AC81AC8A24F44074B0890443AC8268463F
:10162000FFF74FFDB548854202D0B948854202D147
:10163000DDF80C9001E0DDF80890A88900F4004086
:1016400040B109EBC90000EB091031684900B0FB5B
:10165000F1F707E009EBC90000EB091031688900D8
:10166000B0FBF1F76420B7FBF0F00401200964211E
:1016700001FB1078A88900F4004040B1322000EB53
:10168000C800B0FBF1F000F00700044308E032208E
:1016900000EB08106421B0FBF1F000F00F000443F0
:1016A0002C81BDE8FF874FF4165101600021818035
:1016B000C18001810C21418100218181704710B5D9
:1016C00002460020108A20F470600B884C88234367
:1016D0008C882343CC8823431843108210BD0021FB
:1016E000018041808180C180704721B1828942F4AC
:1016F0000052828104E082894DF6FF731A40828194
:101700007047028B02F47F420283028B0A430283FA
:10171000704721B1828942F40042828103E08289CC
:10172000C2F30E028281704721B1828A42F40062C4
:10173000828204E0828A4FF2FF731A4082827047ED
:10174000C1F308028280704701468888C0F3080010
:101750007047028A4FF6F0731A400282028A0A43E7
:101760000282704721B1828942F00202828104E044
:1017700082894FF6FD731A408281704782894FF249
:10178000FF731A40828182890A4382817047028AEC
:101790004FF6DF731A400282028A0A4302827047C0
:1017A00021B1028A42F48042028204E0028A4BF6AE
:1017B000FF731A4002827047818941F001018181E3
:1017C000704721B1828A42F00802828204E0828A54
:1017D0004FF6F7731A4082827047028BD2B20283AF
:1017E000028B42EA01220283704721B1828A42F0D1
:1017F0002002828204E0828A4FF6DF731A408282DE
:10180000704721B1828A42F01002828204E0828A0B
:101810004FF6EF731A4082827047828A4FF6FB734D
:101820001A408282828A0A438282704721B1828A68
:1018300042F00202828204E0828A4FF6FD731A406F
:10184000828270471AB1838A0B43838202E0838AC3
:101850008B4383827047F0B50346002400260025A1
:10186000002040F66A17B94200D100BF1846C1F304
:10187000421401F01F06012707FA06F5012C01D1D9
:101880000C3004E0022C01D1103000E014301AB109
:1018900007682F43076002E00768AF430760F0BDA9
:1018A00002460020B1F5007F00D100BF13880B4035
:1018B0000BB1012000E00020704701F40072B2F586
:1018C000007F00D100BFCA430280704770B5024656
:1018D000002400230025002040F66A16B14200D102
:1018E00000BFC1F3421501F01F03012606FA03F3FE
:1018F000012D13D19689334017E0000000100140FC
:101900000044004000480040004C004000500040AF
:101910000014014000780040007C0040022D02D1FC
:10192000168A334001E0968A33400C12012606FAEB
:1019300004F41688344013B10CB1012000E00020FB
:1019400070BD10B50022002340F66A14A14200D1F8
:1019500000BF0A1201249440A3B2DC43048010BDEE
:1019600010B501218803FFF72CFD00214FF48040C2
:10197000FFF727FD10BD1C49086070471B4908622E
:10198000704730B500228B071C0F0F2303FA04F2B7
:10199000154B08338C1053F824309343124C083401
:1019A0008D1044F8253023468C1053F824308C07D2
:1019B000240F00FA04F423430B4C08348D1044F830
:1019C000253030BD0949DC3108607047084908609E
:1019D0007047002004492031096801F4807109B181
:1019E000012000E00020704700380140000027423D
:1019F0000004274210B50446FE48844208D1012164
:101A00000846FFF7DEFC00210120FFF7DAFC9DE02D
:101A1000B4F1804F08D101210846FFF7C1FC002135
:101A20000120FFF7BDFC91E0F348844208D1012179
:101A30000220FFF7B5FC00210220FFF7B1FC85E092
:101A4000EE48844208D101210420FFF7A9FC0021BF
:101A50000420FFF7A5FC79E0E948844208D1012180
:101A60000820FFF79DFC00210820FFF799FC6DE09E
:101A7000E448844208D101211020FFF791FC0021A5
:101A80001020FFF78DFC61E0DF48844208D101217E
:101A90002020FFF785FC00212020FFF781FC55E086
:101AA000DA48844208D101210220FFF78AFC002194
:101AB0000220FFF786FC49E0D548844209D1012184
:101AC0000804FFF77EFC00214FF48030FFF779FC1B
:101AD0003CE0D048844209D101214804FFF771FC61
:101AE00000214FF40030FFF76CFC2FE0CA4884421D
:101AF00009D101218804FFF764FC00214FF4802004
:101B0000FFF75FFC22E0C548844208D10121402054
:101B1000FFF746FC00214020FFF742FC16E0C048DA
:101B2000844208D101218020FFF73AFC0021802067
:101B3000FFF736FC0AE0BB48844207D1012180153B
:101B4000FFF72EFC0021A015FFF72AFC10BD002294
:101B50000288A84B98420ED0AC4B98420BD0B0F103
:101B6000804F08D0A44B984205D0A44B984202D095
:101B7000A34B984204D14FF68F731A404B881A43F7
:101B8000A04B984207D0A04B984204D04FF6FF4399
:101B90001A400B891A4302804B68C3620B88038585
:101BA000944B984202D0994B984201D18B7A03868C
:101BB0000123838270474FF0FF3141600021018093
:101BC00001814180817270470185828270470A4697
:101BD000002101884FF68F7319401143018070472F
:101BE00041627047C16270470146486A70470146CA
:101BF000088D704721B1028842F00202028004E0A1
:101C000002884FF6FD731A400280704721B10288A6
:101C100042F00402028004E002884FF6FB731A408F
:101C20000280704721B1028842F08002028004E005
:101C300002884FF67F731A400280704702884FF681
:101C4000F7731A40028002880A43028070470288B4
:101C50004FF6FF431A40028002880A430280704711
:101C600021B1028842F00102028004E002884FF6AE
:101C7000FE731A400280704770B5002400220023D2
:101C8000058C4FF6FE7635400584028C8388048BE4
:101C90004FF68F752C40B51E2C400D882C43751EB9
:101CA0002A408D892A434D882A43524DA84202D0AA
:101CB000564DA84213D14FF6F7752A40CD892A43D5
:101CC0004FF6FB752A408D882A434FF6FF652B405F
:101CD0004FF6FF552B400D8A2B434D8A2B438380B3
:101CE00004838D684563028470BD70B500240022B2
:101CF0000023058C4FF6EF7635400584028C8388EF
:101D0000048B48F6FF752C404FF6FF452C400D889C
:101D10004FF6FF7606EA05252C434FF6DF752A407D
:101D20008D8906EA05152A434D8806EA05152A43DA
:101D3000304DA84202D0354DA8421DD14FF67F75D7
:101D40002A40CD894FF6FF7606EA05152A434FF65D
:101D5000BF752A408D8806EA05152A434FF6FF35E0
:101D60002B404FF2FF752B400D8A06EA85052B4369
:101D70004D8A06EA85052B43838004838D6885633D
:101D8000028470BD70B5002400220023058C4FF63C
:101D9000FF6635400584028C8388848B4FF68F75EF
:101DA0002C404FF6FC752C400D882C434FF6FF5508
:101DB0002A408D894FF6FF7606EA05252A434D888D
:101DC00006EA05252A430B4DA84202D00F4DA84232
:101DD00038D14FF2FF752A40CD894FF6FF7606EADB
:101DE00005252A434FF6FF352A408D8806EA05254A
:101DF0002A4319E0000001400004004000080040B0
:101E0000000C00400010004000140040000401409D
:101E100000400140004401400048014000180040DB
:101E2000001C0040002000404EF6FF752B404DF690
:101E3000FF752B400D8A06EA05152B434D8A06EAED
:101E400005152B43838084838D68C563028470BD30
:101E500070B5002200230024058C4EF6FF76354035
:101E60000584038C8488828B48F6FF752A404FF6E0
:101E7000FF452A400D884FF6FF7606EA05252A43DE
:101E80004DF6FF752B408D8906EA05352B434D88AD
:101E900006EA05352B43FE4DA84202D0FD4DA8426F
:101EA00008D14BF6FF752C400D8A4FF6FF7606EAF7
:101EB00085152C43848082838D680564038470BDFE
:101EC000002101804180818081608181C181018206
:101ED0004182704770B50346002000241846183030
:101EE00001258D40ACB21D8CA5431D8409B1082984
:101EF0000AD100EB610005684FF68F76354005602A
:101F00000568154305600FE00D1FC5F34E05284415
:101F1000056848F6FF763540056005684FF6FF76A0
:101F200006EA02263543056070BD41637047816350
:101F30007047C1637047016470470A460021018BF6
:101F40004FF68F7319401143018370470A460021F1
:101F5000018B48F6FF7319404FF6FF7303EA022323
:101F60001943018370470A460021818B4FF68F7316
:101F700019401143818370470A460021818B48F63E
:101F8000FF7319404FF6FF7303EA0223194381835D
:101F900070470A460021018B4FF6F7731940114331
:101FA000018370470A460021018B4FF2FF731940ED
:101FB0004FF6FF7303EA02231943018370470A4671
:101FC0000021818B4FF6F7731940114381837047CD
:101FD0000A460021818B4FF2FF7319404FF6FF73C1
:101FE00003EA02231943818370470A460021018BCB
:101FF0004FF6FB7319401143018370470A460021D5
:10200000018B4FF6FF3319404FF6FF7303EA0223AB
:102010001943018370470A460021818B4FF6FB73F9
:1020200019401143818370470A460021818B4FF686
:10203000FF3319404FF6FF7303EA022319438183EC
:1020400070470A460021018B4FF67F7319401143F8
:10205000018370470A460021018BC1F30E014FF640
:10206000FF7303EA02231943018370470A460021E4
:10207000818B4FF67F7319401143818370470A4665
:102080000021818BC1F30E014FF6FF7303EA022397
:102090001943818370470A460021018C4FF6FD7376
:1020A00019401143018470470A460021018C4FF604
:1020B000F77319401143018470470A460021018CCF
:1020C0004FF6DF7319404FF6FF7303EA021319430B
:1020D000018470470A460021018C4FF67F73194036
:1020E0004FF6FF7303EA02131943018470470A464F
:1020F0000021018C4FF6FF5319404FF6FF7303EA9E
:1021000002231943018470470A460021018C4FF2D3
:10211000FF7319404FF6FF7303EA0223194301844A
:1021200070470A460021018C4DF6FF7319404FF6A7
:10213000FF7303EA023319430184704730B500236B
:1021400001248C40A3B2048C9C430484048C02FAC6
:1021500001F5ADB22C43048430BD30B50023042416
:102160008C40A3B2048C9C430484048C02FA01F5D5
:10217000ADB22C43048430BD828B4FF2FF331A4042
:102180008283828B4FF6FF7303EA01231A43828313
:102190007047F0B50C461546002100220026078C3A
:1021A0004EF6FF7C07EA0C070784818B028C4FF602
:1021B000FF7707EA043640F6FF4739404FF6FF77CE
:1021C00007EA052739434FF6FF7707EA0337394314
:1021D00045F6FF773A4046F480573A4381830284BC
:1021E000F0BD828B4FF6F3731A408283828B0A43D1
:1021F00082837047F0B50C46154600210022002668
:10220000078C4FF6FF6C07EA0C070784818B028C62
:102210004FF6FF7707EA04264FF60C7739404FF662
:10222000FF7707EA03172F4339434FF2FF573A402E
:1022300046F480773A4381830284F0BD028B4FF2EB
:10224000FF331A400283028B4FF6FF7303EA012328
:102250001A4302837047F0B50C4615460021002250
:102260000026078C4FF6EF7C07EA0C070784018BEA
:10227000028C4FF6FF7707EA041640F6FF47394015
:102280004FF6FF7707EA033739434FF6FF7703E04E
:10229000000001400004014007EA052739434FF6DA
:1022A0005F773A4046F010073A4301830284F0BD5D
:1022B000028B4FF6F3731A400283028B0A430283A8
:1022C0007047F0B50C46154600210022068C4FF6EB
:1022D000FE773E400684018B028C4FF60C7631402F
:1022E0007E1C06EA03162E4331434FF6F576324044
:1022F00044F00106324301830284F0BD70B5054607
:102300000C46208850B92389A28861882846FFF7A7
:10231000D8FFE1882846FFF7CBFF25E02088042876
:102320000AD12389A28861882846FFF794FFE188B3
:102330002846FFF783FF17E0208808280AD1238961
:10234000A28861882846FFF755FFE1882846FFF7F5
:1023500048FF09E02389A28861882846FFF719FF12
:10236000E1882846FFF708FF70BD00210180418009
:10237000012181800021C180018170472DE9F04158
:1023800005460C4600260127608808B9022600E0B1
:102390000026A088012801D1022700E0012720881B
:1023A000A0B92389A28861882846FFF78AFFE188BF
:1023B0002846FFF77DFF23893A4631462846FFF736
:1023C0004AFFE1882846FFF739FF13E02389A288F6
:1023D00061882846FFF73FFFE1882846FFF72EFF78
:1023E00023893A4631462846FFF76BFFE1882846A5
:1023F000FFF75EFFBDE8F0810146486B704701467C
:10240000886B70470146C86B70470146086C70477F
:102410000A884B881A438B881A43CB881A430B8946
:102420001A434B891A438B891A43A0F844207047FA
:102430000021018041808180C180018141818181B1
:10244000704731B1B0F8442042F40042A0F8442073
:1024500005E0B0F84420C2F30E02A0F84420704713
:1024600021B1828842F00402828004E082884FF623
:10247000FB731A408280704721B1828842F00102CA
:10248000828004E082884FF6FE731A408280704793
:102490001AB183890B43838102E083898B43838153
:1024A00070478182704702460020138A0B400BB1AF
:1024B000012000E000207047CA430282704730B517
:1024C0000246002000230024158A05EA01039589AD
:1024D00005EA010413B10CB1012000E0002030BD79
:1024E000CA430282704741EA0203A0F848307047AD
:1024F0001AB183890B43838102E083898B438381F3
:10250000704721B1828842F00802828004E082880C
:102510004FF6F7731A408280704701894FF6F872C0
:102520001140018170470A46002101894FF68F73DF
:10253000194011430181704730B504460D462946C4
:102540002046FFF7F0FF208940F00700208130BDD2
:102550002DE9F04104460D4616461F46602D06D172
:102560003B46012231462046FFF775FE05E03B461B
:10257000012231462046FFF7A4FE29462046FFF7F8
:10258000D2FF208940F007002081BDE8F08130B5FE
:102590000C4600210189C9B24FF6FF7505EA0325F3
:1025A000154325432943018130BD2DE9F0410546FE
:1025B0000E4617469846002443463A46314628467A
:1025C000FFF7E5FF2C894FF6F870044044F007044C
:1025D0004FF68F70044044F070042C81BDE8F08108
:1025E000F0B504460D4616461F463B463246294680
:1025F0002046FFF7CCFF208940F480402081F0BDC9
:1026000082884FF68F731A40828082880A438280C4
:10261000704702894FF6F8731A40028102890A4313
:102620000281704702894FF67F731A400281028946
:102630000A4302817047F0B50C4615461E4600213C
:10264000002200230189028B038C4FF6F877394072
:1026500021434FF6FC473A4040F201173A434FF608
:10266000DD773B404FF6FF7707EA06172F433B43E2
:10267000018102830384F0BD21B1828842F080028F
:10268000828004E082884FF67F731A408280704710
:10269000A0F8501070470000002041490860091D53
:1026A0000860091D0860091D08603E483C49143156
:1026B0000860704700213A498279002A3AD00A46D8
:1026C000126803689A430B461A600A1D1268036871
:1026D0009A430B1D1A60027911440A6803681A4371
:1026E0000A602F4A0832126803689A432C4B083359
:1026F0001A601A1D126803689A43294B0C331A603A
:102700004279102A0ED11A1F126803681A43244B0B
:1027100008331A601A1D126803681A43204B0C33E1
:102720001A600DE01E49427911440A6803681A4391
:102730000A6005E0027911440A6803689A430A6056
:1027400070470021016001710C21417100218171EC
:1027500070471349103109680143114A1032116062
:102760007047014600200E4A143212680A400AB12E
:10277000012000E0002070470949143108607047CB
:1027800001460020064A143212680A400AB10120AC
:1027900000E00020704702491431086070470000D3
:1027A000003C0140FFFF7F0010B5D2A1D44800F0EB
:1027B0002BFCE0B9D3A1D24800F026FC40B1D348AD
:1027C000006808B9012000E00020D04908600EE050
:1027D000CFA1CB4800F018FC48B1CC48001D0068E0
:1027E00008B9012000E00020C849091D086010BD9B
:1027F00010B50446C848008800F4004080B10020AD
:10280000C5490988C1F30E01BD4A50541146C3A001
:1028100000F064FAFFF7C8FF14B10020BE49088039
:1028200010BD70B504460025BB48008800F4004088
:1028300058B10020B8490988C1F30E01B04A50547C
:102840002146104600F0E0FB0546284670BD2DE904
:10285000F04106460D46144600270020AE49088088
:102860003146AFA0FDF7B1FF3146ADA000F036FA1A
:10287000E5B1DCB113E00A20FEF77AF8A64800883B
:1028800000F4004058B12846FFF7CBFF20B129469D
:10289000A5A000F023FA06E000209F490880601EF2
:1028A00080B2041EE7D100BF04B901273846BDE855
:1028B000F0812DE9F04106460D4614460027002020
:1028C00095490880314695A0FDF77FFFC5B1BCB1A1
:1028D0000FE00A20FEF74CF88F48008800F4004013
:1028E00038B12846FFF79DFF00B106E000208A4975
:1028F0000880601E80B2041EEBD100BF04B901271E
:102900003846BDE8F08110B500BF8A48008800F065
:1029100040000028F9D02B208649091D08800F208F
:10292000FEF726F800BF8348008800F0400000282A
:10293000F9D02B207F49091D08800F20FEF718F8D9
:1029400000BF7C48008800F040000028F9D02B2010
:102950007849091D08804FF4FA70FEF709F814222F
:1029600075A176A0FFF773FF10BD70B5FFF7CBFF21
:1029700008B1002070BD322271A172A0FFF767FF7D
:1029800074A0FFF74EFF05462C782046F2E72DE9AC
:10299000F0410446322272A175A0FFF758FF77A0DC
:1029A000FFF73FFF0646314676A000F097F9F51D88
:1029B000284600F03BFB0746394674A000F08EF92C
:1029C000284600F033FB401E002129542C462146A6
:1029D00070A000F083F97248224672A10368204675
:1029E00000F088F9BDE8F0811FB504466C486A46DE
:1029F00071A10368284600F07DF9204604B010BD9F
:102A000006E0FFF780FFC8224BA172A0FFF71FFF6F
:102A1000142249A149A0FFF71AFF0028F1D105E0CF
:102A20000A20FDF7A5FF0120FFF7E2FEF8E72DE9F8
:102A3000F04190B0002540F2E73600240027A04680
:102A400002E068A000F04AF964223BA169A0FFF708
:102A5000FEFE0028F5D102E069A000F03FF94FF436
:102A600048726BA16DA0FFF7F2FE0028F4D16D480B
:102A700003686D486DA10268684600F03BF906E006
:102A800069466FA000F02AF96FA000F027F94FF413
:102A900096725FA16846FFF7DAFE0028F0D1322275
:102AA00025A171A0FFF7D3FE3D4872A102686846D8
:102AB00000F020F902E074A000F010F94FF49672D3
:102AC0001DA16846FFF7C3FE0028F4D108A8FFF750
:102AD0005EFF334808AA72A10368684600F00AF94D
:102AE0002F48694602680DA000F0F8F8204610B0A3
:102AF000BDE8F0816170703A6862702100000000EA
:102B0000D00100206F70656E00000000A482424278
:102B1000636C6F73650000001400002025730000D3
:102B200025730D0A0000000061636B3A25730D0ADE
:102B300000000000004800404F4B000041540000DE
:102B40003A00000041542B434950535441545553CB
:102B5000000000002B4349505354415455533A0050
:102B60002B43494653523A53544149500000000008
:102B700041542B43494653520000000053544149ED
:102B8000502C2200702D3E257300000070312D3E28
:102B90003A25640069706275662D3E3A257300001F
:102BA000340000205354412049503A257320B6CBBD
:102BB000BFDA3A257300000041542B434950535467
:102BC0004152543D302C22544350222C2225732252
:102BD0002C25730041542B4349504D4F44453D3003
:102BE000000000006D6F6465206661696C642E2EC4
:102BF0000D0A000041542B43574D4F44453D3100D1
:102C0000727374206661696C642E2E0D0A000000D8
:102C10005749464920474F542049500041542B52B0
:102C2000535400003C0000203800002041542B4346
:102C3000574A41503D222573222C22257322000041
:102C4000702D3E25733A00007365742073736964B8
:102C50002670617373776F7264206661696C642E8D
:102C60002E2E0D0A0000000041542B4349504D55B3
:102C7000583D310041542B4349505345525645521B
:102C80003D312C25730000007365742073657276E6
:102C90006572206661696C642E2E2E0D0A0000009C
:102CA0004950B5D8D6B73A257320B6CBBFDA3A2506
:102CB00073000000704700001CB50C46064B7B44B7
:102CC00069460090204600F080FA044600206946DC
:102CD00000F08EFA20461CBD2F0500000FB40449F9
:102CE00010B503AA029800F09FFA10BC5DF814FB1F
:102CF0001C0000200FB41CB5084B06AA7B44694693
:102D00000090059800F061FA04460020694600F042
:102D10006FFA20461CBC5DF814FB0000F1040000B3
:102D200070B50C460546012A05D02878800600D5E6
:102D3000EA69002302E0012305E05B1C934202D212
:102D4000E05C0028F9D1A869E618C01AA861286AD1
:102D500018442862284600F08CF904E0D5E90121E6
:102D600014F8010B9047B442F8D3284600F097F9C5
:102D700070BD00002DE9F041064600241068752959
:102D8000314616A510D000F09BF9002802DA404227
:102D900013A507E031688A0701D512A502E04907AB
:102DA00004D511A5012401E000F093F900210A22C5
:102DB00006F1240709E0B0FBF2FCB0FBF2F302FBE2
:102DC0001C00303078541846491C0028F3D12346A3
:102DD0002A463046BDE8F04100F084B9000000000A
:102DE0002D0000002B00000020000000F0B40D4674
:102DF0000188090502D5214C7C4402E01F4C7C442B
:102E00000E34002100F1240608E002F00F07120939
:102E1000E75D42EA03721B097754491C52EA030733
:102E2000F3D102780023120704D5702D06D009B122
:102E3000022311342246F0BC00F054B901231034AF
:102E4000F8E770B504460D462146106800F041F9D8
:102E5000024629462046BDE870400023C6E7D21D41
:102E600022F00703D3E90023C0E70368126843F0A8
:102E7000200303600823C3610023B7E7AE150000F9
:102E80002DE9F05F894604464FF0000ADFF874B17F
:102E9000FB44C0F820A02046E1688847002874D091
:102EA000252806D0D4E901219047206A401C2062E1
:102EB000F1E700265F462046E1688847202805465E
:102EC00007DB312D05D2781910F8200C08B1064324
:102ED000F1E7B00701D526F00406C4F81CA00027CE
:102EE000C4F818A02A2D09D0284601F023FA38B3D7
:102EF00004EB8708303DC8F8185019E059F8041B56
:102F0000204604EB87029161E1688847012F05465E
:102F100018D1E069002820DA26F020061DE0D8F854
:102F2000180000EB800005EB40003038C8F81800AE
:102F30002046E1688847054601F0FCF90028EED1FB
:102F4000012F0AD02E2D08D12046E16888477F1C2A
:102F50000546022F46F02006C4DBA069002803DAEC
:102F6000404246F00106A061F00701D026F01006AD
:102F70006C2D0BD0682D09D04C2D39D06A2D35D051
:102F8000742D35D07A2D33D016E038E0E1682F4625
:102F900020468847B842054609D16C2F26D04FF409
:102FA0008060E168064320468847054604E06C2FB0
:102FB0001AD04FF4807006430DB3A5F141001928D3
:102FC00002D8203546F400664A4629462046266047
:102FD0004E46FDF713F980B101280BD0F61D26F0FF
:102FE000070000F1080956E74020E4E78020D8E711
:102FF0000020D6E706F104094DE7284652E7206A8B
:10300000BDE8F09F3E15000030B505460B462A4648
:1030100013F8014B12F8010B08B1A042F8D01CB113
:10302000002802D06D1CF1E7284630BD10B5431CC6
:1030300002E010F8011B71B18107FAD14FF00132A3
:1030400002C88C1A8C4314EAC211F9D0C01A0A06BD
:1030500003D0C01E10BDC01A10BD0A0401D0801ECE
:1030600010BD0902FCD0401E10BD7047704770476C
:10307000704770B5044685690068C10601D53026E1
:1030800000E02026C00707D070BDD4E901213046FA
:103090009047206A401C20626D1EF6D570BD70B549
:1030A000044685690078C00707D170BDD4E90121C5
:1030B00020209047206A401C20626D1EF6D570BD0E
:1030C00009684A0501D540B27047C905FCD500B270
:1030D000704709684A0501D5C0B27047C905FCD5DB
:1030E00080B270472DE9F0470D4699469246044656
:1030F00000F124080168880604D5E06921F0100178
:10310000216000E00120A84201DD471B00E000270C
:10311000A1697A1902EB0900081AA0612078C0069B
:1031200002D42046FFF7A5FF002608E0D4E90121DC
:103130001AF806009047206A401C761C20624E4513
:10314000F4DB2078C0060AD52046FFF792FF06E0A0
:10315000D4E9012130209047206A401C2062381EAB
:10316000A7F10107F4DC07E0D4E9012118F8050014
:103170009047206A401C2062281EA5F10105F3DC5F
:103180002046FFF78CFF2078000602D50220BDE81C
:10319000F0870120FBE711680268006A530501D53A
:1031A00008700AE0D30501D5088006E0130603D5B0
:1031B000C217C1E9000200E008600120704700006A
:1031C00001694A1C02610878704700B58FB0CDE9EB
:1031D00001310021059105497944CDE903101146DB
:1031E0006846FFF74DFE0FB000BD0000E5FFFFFF92
:1031F0000A6802F8010B0A60704710B5436913B101
:10320000AFF3008001E0FFF78BFD012010BD1278C5
:1032100000F124010A7000224A700122EDE71168D2
:103220004FF0FF32E9E70000074B70B50D467B44D5
:10323000FFF7CBFF0446284600F046FB10B14FF0E5
:10324000FF3070BD204670BD85D7FFFF2DE9FF5FC1
:1032500015468A460446DFF8AC80F8440027D8E9D2
:1032600000103E46CDE9001010E03AF816106A460C
:1032700002A800F02DFB411C07D02178890603D558
:10328000E269391891420DD80744761C20788006EF
:1032900002D5E069B84205DDAE42E6DB3AF8160039
:1032A0000028E2D1A069C01BA0612046FFF7E1FE23
:1032B000D8E90010CDE90010002017E03AF8181006
:1032C0006A4602A800F004FBB0F1FF3F81460BD034
:1032D00000250DF1080B05E0D4E901211BF80500DC
:1032E00090476D1C4D45F7D308F10100B042804670
:1032F000E4DB206A384420622046FFF7D0FEBDE8B8
:10330000FF9F0000861100002DE9F0418046D21D8C
:1033100022F007020025D2E90002F52915A614D0F3
:10332000011E72F1000106DA0023D0EB030063EB0B
:10333000020211A608E0D8F800108B0701D50FA6ED
:1033400002E0490701D50EA601251146002408F127
:10335000240704E000F04EF830323A55641C50EA7D
:103360000102F7D12B46324621464046BDE8F041E6
:10337000FFF7B8BE000000002D0000002B00000089
:103380002000000030B4002100F1240408E002F025
:103390000705D208303542EA4372DB086554491C00
:1033A00052EA0305F3D10468002310A2250707D5CC
:1033B000A40600D421B1C46901230DA2641EC46116
:1033C00030BCFFF78FBE10B5044621461068FFF7EA
:1033D00080FE02462046BDE810400023D2E7D21D01
:1033E00022F00701D1E90023CCE700000000000033
:1033F0003000000030B5B0F10A024FEA900E71F1D2
:1034000000034EEA817EB0EB0E0061EB91014FEAC2
:10341000101E4EEA017E10EB0E0041EB11114FEA37
:10342000102E4EEA016E10EB0E0041EB11214FEA17
:10343000104E4EEA014E10EB0E0041EB11414018C8
:1034400041F100014FEAD00040EA41704FEAD1015A
:1034500010EB80054FEA810444EA907444EB0104C8
:103460006D1944EB0404521BA3414FF0000348BF05
:103470000A3200D530BD401C41F1000130BD70471B
:103480002DE9FF4F0C461E464FF0FF378BB0D2E9B7
:103490000001DDF860800A908A46C1F30A5505B93B
:1034A0003D46002108464FF00000BAF1000F00F43D
:1034B000400005DA00EB80004FF4400101EA5000C3
:1034C0004FEA9059B9F1010F00DDB9460A9850EA68
:1034D0004A000ED044F61050A5F2FF3545432F1494
:1034E000B8F1000F1ED07542291E1EDDC9F1000281
:1034F0001CE0B8F1010F4FF0000001D0302103E0D3
:10350000F24305E02154401CB042FBDB3046002270
:10351000002121540B99C1F80880C1E900200FB0A7
:10352000BDE8F08FBD1B6D1CDEE74A4600DA69423C
:1035300006A800F063FA06AB93E8070003AB83E844
:10354000070050460A9900F015FB8DE80700A0F52A
:1035500000501F3800900398002D0ADD42F21F0131
:103560004A460844002303A90390684600F07EFD04
:1035700009E0A0F500504A461F38002303A9039034
:10358000684600F088FD8DE807000004000C03D0B9
:103590004FF0FF30410800E01046B8F1000F03D0B3
:1035A0000022009215461EE0751E05D4FFF722FF8B
:1035B000303262556D1EF9D5B3460122084302D060
:1035C00000227F1C04E02078302801D100227F1ED9
:1035D000002A099784D01DE0112D07DAFFF70AFFB2
:1035E000303262556D1C50EA0102F5D1084302D019
:1035F0000098C8B10EE00021681E05E0235C625C03
:1036000063542254401E491C8142F7DBAB46A81B81
:10361000401E0990002004F80B000B98099AC0F88E
:103620000880C0E9002B7AE711264FF0000857E721
:103630002DE9F04F88460446D21D22F0070191B0D3
:10364000D1E90001CDE90A0100F05CFE02460B98C9
:10365000C00F01D02D2007E02068810701D52B2065
:1036600002E0202101EAC000032A099001D0072AC4
:1036700005DB03464146204600F080F90BE1207847
:10368000800601D5E06900E00620B8F1650F8146AB
:1036900006D0B8F1660F18D0B8F1670F70D131E0DD
:1036A0000020B9F1110F009001DB112301E009F1B5
:1036B00001030AAA01A90CA8FFF7E2FEDDE90C70DC
:1036C000002609F10105834647E001204B460090A2
:1036D0004FF000470AAA01A90CA8FFF7D1FEDDE9C7
:1036E0000DB00C995D46002610B909F101000D18C6
:1036F000B9EB050003D4C0F1FF3609F10105A5EBD4
:1037000009002BE0B9F1010F01DA4FF001090020A7
:10371000B9F1110F0090484601DD112300E0034686
:103720000AAA01A90CA8FFF7ABFEDDE90C704D4613
:1037300000268346207800070AD4AB4500DA5D46B0
:1037400001A8012D04DD411911F8011C302907D011
:103750004F4502DA17F1040F04DA012082460FE028
:103760006D1EEEE7002F02DCED1B3E4403E0781CEB
:10377000A84200DD7D1CB81B00F1010A4FF0004794
:103780002078000703D4AA4501DB4FF0FF3A00215F
:10379000B7F1004F0DF143088DF8431024D00220FB
:1037A0002B23002F01DA7F422D230A21021EA0F1D4
:1037B000010000DC5FB197FBF1FC97FBF1F201FB2C
:1037C0001C7C17460CF1300C08F801CDEEE7A8F18F
:1037D000010003702188090501D5452100E065211C
:1037E000A0F1010800F8011C09980FA9A1EB080736
:1037F000FF1D00B10120411901EBEA70A1693844B5
:10380000081A401EA0612078C00602D42046FFF7A7
:1038100030FC099828B1D4E901219047206A401C66
:1038200020622078C00622D52046FFF722FC1EE049
:10383000002E04DBB34502DD01A8805D00E03020EE
:10384000D4E901219047206A401C2062761CAAF12D
:1038500001005FEA000A0AD100F08CF8C068016834
:10386000405CD4E901219047206A401C2062281E58
:10387000A5F10105DCDC07E0D4E9012118F8010B12
:103880009047206A401C2062381EA7F10107F3DC34
:103890002046FFF704FC032011B041E610B5436950
:1038A00013B1AFF3008001E0FFF7D0FC012010BDA1
:1038B000128800F1240182840022C2840122EDE7F3
:1038C00011684FF0FF32E9E7007B00F0800070479D
:1038D00070B516460C46054600F044F8036893F8A8
:1038E0000101012806D0FF2C0FD8185D68B1012016
:1038F0002C7070BDD3F807013246214603F207133E
:1039000003442846BDE8704018474FF0FF3070BDB3
:1039100000487047280400207546FFF7F9FFAE46BF
:1039200005006946534620F00700854618B020B5CB
:10393000FDF7F2F8BDE820404FF000064FF0000719
:103940004FF000084FF0000B21F00701AC46ACE847
:10395000C009ACE8C009ACE8C009ACE8C0098D46B4
:103960007047000010B500F005F8001D10BD00BF45
:10397000010A000000487047480400202DE9F0418A
:103980001F46044603260168072A01F4006004DB91
:1039900008B116A505E016A503E008B115A500E0DD
:1039A00015A521F010002060A069C01EA0610FB114
:1039B000401EA0612046FFF75CFB4FB1D4E9012116
:1039C00038469047206A401C2062C01C206206E0F6
:1039D000206AFAE7D4E9012115F8010B9047761E19
:1039E000F8D22046FFF75BFBBDE8F0814E414E0068
:1039F0006E616E00494E4600696E66002DE9F04723
:103A0000814616468AB0354878440DC88DE80D00C9
:103A100032487844801C03AC0DC884E80D0041F6A0
:103A20009B300844372190FBF1F290FBF1F5A5F1B2
:103A3000800501FB12041B3C02D56442012000E01A
:103A40000020DFF898A080460027FA44AAF1BE0AB9
:103A50000EE0E0070AD03246684607EB4701012333
:103A60000AEB810100F017FB8DE8070064107F1C52
:103A7000002CEED1194F7F44AE3F19E0E80715D076
:103A800007EB04100DF1180A90E80E008AE80E000A
:103A9000C068F04201D1981908903246012306A966
:103AA00003A800F0F8FA03AB83E807006D10641C6C
:103AB000002DE3D14FF0010332466946B8F1000F03
:103AC00003A802D000F0D2FA01E000F0E4FAC9E95C
:103AD0000001C9F808200AB0BDE8F0875C0A0000C0
:103AE00010B50446AFF300802046BDE81040FCF757
:103AF000EABB00004FF0013C50F8042B51F8043BA6
:103B00009A4221D1A2EB0C03934313EACC1317D1B1
:103B100050F8042B51F8043B9A4215D1A2EB0C0348
:103B2000934313EACC130BD150F8042B51F8043B08
:103B30009A4209D1A2EB0C03934313EACC13DBD0D6
:103B40004FF00000704700BFD01A01BAB1FA81F1FE
:103B500001F0180122FA01F0CB40C1F12001DBB2E3
:103B6000C0B2C01A2CFA01F3D11A914311EAC31161
:103B7000E6D170475FEA400C08BF91F0000F4FEAB2
:103B80008C234FEAC12243EA51514FEA1C5018BF1F
:103B900000F5F0404FEA300018BF41F000415FEA05
:103BA0006C5C00F02980BCF1FF3F08BF40F0804012
:103BB0007047130C06BF12044FF0100C4FF0000CAE
:103BC000130E04BF12020CF1080C130F04BF1201F4
:103BD0000CF1040C930F04BF92000CF1020CD30FF4
:103BE00004BF52000CF1010C11464FF00002A0F18D
:103BF0001F00A0EB0C00704711F0004F08BF70478A
:103C000031F000413FF4D5AF0B0C06BF09044FF073
:103C1000100C4FF0000C0B0E04BF09020CF1080C45
:103C20000B0F04BF09010CF1040C8B0F04BF8900BA
:103C30000CF1020CCB0F04BF49000CF1010CCCF1CC
:103C40002003A0EB0C0022FA03F302FA0CF241EA83
:103C5000030100F10100704720F07F4C80EA03006F
:103C600023F07F47ACEB070303F57C5300F00040E3
:103C700003F1FF032DE980494FEA154B09B44FEAE0
:103C8000144325EA0B4E24EA03480FF2042606EB00
:103C9000132749083E785FEA320203FB0667C7F53F
:103CA000000707FB06F64FEA54374FEAD64606F1FF
:103CB000020607FB066CCCF1005C4FEA1C472CEABD
:103CC000074C07FB06F40CFB06F504EB15464FEA20
:103CD000961634BF00204FF000404FEAD13706FB64
:103CE00007FC4FEA1C4C0CFB0BF7D21B03FB0CF739
:103CF00061EB07010CFB0EF7B0EB074072EB1742CC
:103D00000CFB08F734BFA2EB0742B2EB074261EBB2
:103D100017414FEA0C444FEA910706FB07FC4FEAB4
:103D20001C4C0CFB0BF7B0EBC74072EB573203FB9C
:103D30000CF734BFA2EBC742B2EBC74261EB57317D
:103D40000CFB0EF7B0EBC70072EB57720CFB08F7D9
:103D500034BFA2EBC702B2EBC70261EB5771039FFE
:103D60004FEA816141EA921104EBCC044FEAD1376A
:103D70004FEA826206FB07FC42EA90124FEA80603B
:103D80004FEA1C4C0CFB0BF7D21B03FB0CF761EB4F
:103D900007010CFB0EF7B0EB074072EB17420CFB70
:103DA00008F734BFA2EB0742B2EB074261EB1741C1
:103DB0004FEA8C554FEA910704EB9C2406FB07FC65
:103DC0004FEA1C4C0CFB0BF7B0EBC74072EB5732C1
:103DD00003FB0CF734BFA2EBC742B2EBC74261EB67
:103DE00057310CFB0EF7B0EBC70072EB57720CFBB0
:103DF00008F734BFA2EBC702B2EBC70261EB577101
:103E000015EB4C254FEA816141EA92114FEA82623B
:103E10004FEAD13742EA901206FB07FC44F1000456
:103E20004FEA80604FEA1C4C0CFB0BF7D21B03FBE4
:103E30000CF761EB07010CFB0EF7B0EB074072EBE0
:103E400017420CFB08F734BFA2EB0742B2EB074264
:103E500061EB174115EB1C154FEA813141EA9241A4
:103E60004FEA823242EA90424FEA80304FEA0C76C3
:103E700044F1000448EA03434EEA0B484FF0000EB9
:103E8000B2EB080C71EB030724BF624639464EEBD8
:103E90000E0E4FF0000B0018524149414BEB0B0B3B
:103EA000B2EB080C71EB03077BF1000B24BF6246F9
:103EB00039464EEB0E0E4FF0000B001852414941AF
:103EC0004BEB0B0BB2EB080C71EB03077BF1000B18
:103ED00024BF624639464EEB0E0E51EA020718BF68
:103EE00046F0010616EB0E7655F1000254F1000182
:103EF00003D5BDE88901BDE80088BDE88901BDE8BA
:103F00000048B619524141EB0101A3F1010370478A
:103F100080807F7E7D7C7B7A797877767675747306
:103F2000727171706F6E6E6D6C6C6B6A6A696868C5
:103F3000676666656464636362616160605F5F5E5B
:103F40005E5D5D5C5C5B5B5A5A59595858575756D1
:103F50005655555554545353525252515150505036
:103F60004F4F4F4E4E4D4D4D4C4C4C4B4B4B4A4A88
:103F70004A494949484848474747474646464545CC
:103F80004544444444434343434242424241414105
:103F9000002B9C4630D477002BD01CB54FEA370756
:103FA00003B44FF010004FF01001BAF1000F06D02B
:103FB000BCF1000FDCBF40F0080040F008014FF0FA
:103FC00000000FBCBDE810400BF1010BBBF1010F6D
:103FD00008BF5FEA170722BF12F1010211F10101C8
:103FE0004FF0004143F1000300F0004043EA0000BD
:103FF0007047F9D35708D0E746EA064613F1400F59
:104000004FEA16461FDD13F1200FDFBF16430A46A5
:10401000002120335B42BED0C3F1200746EA0646AA
:1040200002FA07F74FEA164646EA0706C3F12007E9
:1040300022FA03F201FA07F721FA03F14FF0000325
:1040400042EA0702A7E746EA020646EA06464FEAC0
:10405000164646EA0106BCBF46EA0646360C4FF055
:1040600000034FF000024FF0000194E72DE9804C6F
:104070009A46934670B491E8380007C831EA400C7C
:1040800048BF34EA430C03D5FFF7E6FDFFF780FF96
:10409000F0BCBDE8008C2DE9804C9A46934670B484
:1040A00091E8380007C810F0804F08BF13F0804F28
:1040B00003D100F005F8FFF76BFFF0BCBDE8008C02
:1040C00020F07F4780EA030023F07F4C07EB0C03CE
:1040D000A3F57C5300F00040A3F1FE0392F0000F23
:1040E00000F0B38095F0000F00F077802DE90149D2
:1040F0004FEA11404FEA144621EA004800FB06FC53
:1041000024EA064708FB06F607FB08F800FB07F75A
:1041100018EB06484CEB164C4FEA124B18EB0748CD
:104120004FEA15464CEB174022EA0B4E0BFB06FC00
:1041300025EA06470EFB06F607FB0EFE0BFB07F70C
:104140001EEB064E4CEB164C4FF000061EEB074ED6
:104150004CEB174B18EB0B0840F1000018EB0E0B63
:1041600058EB000840F100008F1A4FF000013CBFEF
:10417000C943661B14BFB5EB040C00213CBFC94307
:10418000F61B4FEA17444EEA8E0E27EA04454FEA23
:104190001C4704FB07622CEA074C05FB07F70CFBE6
:1041A00005F604FB0CFC16EB074642EB174216EB38
:1041B0000C4642EB1C421BEB060658EB0202414147
:1041C00046EA9E0601D5BDE80189B619524141EB88
:1041D0000101A3F10103BDE801894FEA14454FEA4B
:1041E000114724EA054621EA074C05FB07F406FBC4
:1041F00007F70CFB06F105FB0CFC11EB074144EB48
:1042000017444FEA124711EB0C4144EB1C4422EADD
:10421000074C05FB07F206FB07F70CFB06F605FB50
:104220000CFC16EB074642EB174216EB0C4642EB32
:104230001C456A1854F1000148BF7047B619524135
:1042400041EB0101A3F10103704795F0000F37D056
:104250004FEA11424FEA144721EA024624EA074C8A
:1042600002FB07F106FB07F70CFB06F402FB0CFC54
:1042700014EB074441EB17414FEA154714EB0C448C
:1042800041EB1C4125EA074C02FB07F506FB07F74B
:104290000CFB06F602FB0CFC16EB074645EB17453C
:1042A00016EB0C4645EB1C42121951F1000148BFB8
:1042B0007047B619524141EB0101A3F10103704768
:1042C0004FEA14454FEA114724EA054621EA074C14
:1042D00005FB07F106FB07F70CFB06F24FF00006A3
:1042E00005FB0CFC12EB074241EB174112EB0C42B1
:1042F00051EB1C4148BF7047921841EB0101A3F1FB
:104300000103704703B401984100009850EAC120AE
:1043100018BF04204A0D18BF40F0010040F2FF72A0
:10432000B2EB515F08BF40F00200012808BF052032
:1043300002B0704730380A2801D2012070470020AF
:104340007047000010B500290AD00878002807D06F
:1043500005487844FFF7CEFB002801D0002010BDAF
:104360000248784410BD00006E01000066010000A4
:1043700010B500290AD00878002807D005487844ED
:10438000FFF7B8FB002801D0002010BD0248784498
:1043900010BD00005E010000560100004FF04070AB
:1043A000E1EE100A7047FFF743B93031323334354C
:1043B0003637383941424344454640305800303161
:1043C000323334353637383961626364656640307C
:1043D0007800040000080000000000000002000156
:1043E000000010000000000000000000024000007B
:1043F000000000A00000000005400000000000C810
:10440000000000000C4000000000409C0000000084
:10441000194000000020BCBE000000003440000035
:10442000BFC91B8E00000004B5400000504BCFD028
:104430006607E2CF010000006C4100003E8251AAF5
:10444000DFEEA73401000000D9420000DCB5A0E295
:104450003A301F97FFFFFFFFB4450000FD25A0C8BD
:10446000E9A3C14FFFFFFFFFFF3F000000000080F6
:1044700000000000FF3F000000000080000000007E
:10448000656E7A7134727234000000003837383744
:1044900000000000434D43432D7370636E00000025
:1044A000EC4500080000002040000000C4010008A6
:1044B0002C46000840000020480A0000E0010008E7
:1044C0001C00000043000000F8FFFFFF0C0000008C
:1044D0000E0000000F0000002E0000001001000080
:1044E00043000000F8FFFFFF0040404040404040D4
:1044F00040404141414141404040404040404040B7
:10450000404040404040404040050202020202025A
:1045100002020202020202020220202020202020A9
:1045200020202002020202020202909090909090BD
:10453000101010101010101010101010101010107B
:1045400010101010020202020202888888888888EF
:1045500008080808080808080808080808080808DB
:1045600008080808020202024000000000000000E3
:10457000000000000000000000000000000000003B
:10458000000000000000000000000000000000002B
:10459000000000000000000000000000000000001B
:1045A000000000000000000000000000000000000B
:1045B00000000000000000000000000000000000FB
:1045C00000000000000000000000000000000000EB
:1045D00000000000000000000000000000000000DB
:1045E000000000000000000000000000007A030A44
:1045F0000000000000000000010203040607080993
:1046000000000000000000000000000000000000AA
:104610000000010203040102030406070809000068
:0C4620008C44000894440008804400080A
:040000050800018965
:00000001FF
